:020000040800F2
:10000000A00F00209D010008E1970008136E000872
:10001000DD9700088D08000849B4000800000000C2
:10002000000000000000000000000000D9A7000848
:10003000AD0C000800000000799A000869A80008CB
:10004000B7010008B7010008B7010008B7010008B0
:10005000B7010008B7010008B7010008B7010008A0
:10006000B7010008B7010008B7010008B701000890
:10007000B7010008B7010008B7010008B701000880
:10008000B7010008B7010008B7010008B701000870
:10009000D5080008B7010008B7010008B70100083B
:1000A000B701000899A90008B701000889A900084C
:1000B000B7010008B7010008B7010008B701000840
:1000C000B7010008B7010008B7010008B701000830
:1000D000B7010008A9B30008C5B30008E1B30008E0
:1000E000B7010008B7010008B7010008B701000810
:1000F000B7010008B7010008B7010008B701000800
:10010000B7010008B7010008A9A90008B701000855
:1001100051AE0008B7010008B7010008B701000898
:10012000B7010008B7010008B7010008B7010008CF
:10013000B7010008B7010008B7010008B7010008BF
:10014000B7010008B7010008B7010008B7010008AF
:10015000B7010008B7010008B7010008B70100089F
:10016000B7010008B7010008B7010008B70100088F
:10017000B7010008B7010008B7010008000000003F
:10018000B7010008B7010008DFF80CD000F046FB0B
:100190000048004791C50008A00F0020064880478E
:1001A00006480047FEE7FEE7FEE7FEE7FEE7FEE75C
:1001B000FEE7FEE7FEE7FEE725A900088901000843
:1001C0002DE9F05F0546002092469B46884606468C
:1001D000814640241BE0284641464746224600F01F
:1001E00066FA53465A46C01A914110D31146184632
:1001F000224600F04DFA2D1A67EB01084F462246C1
:100200000120002100F044FA17EB00094E41201EA6
:10021000A4F10104DFDC484631462A464346BDE8E6
:10022000F09FD2B201E000F8012B491EFBD27047CB
:100230000022F6E710B513460A4604461946FFF7B2
:10024000F0FF204610BD2DE9FE4F804681EA0300F5
:10025000C00F0C46009021F0004123F00045B8EBA0
:100260000200A94105D24046214690461C460B4655
:10027000024623F00040104347D0270DC7F30A0081
:10028000C3F30A510290401A019040286BDAC3F37D
:10029000130040F4801B0098924620B10023D2EB5B
:1002A000030A63EB0B0B01985946C0F1400250461C
:1002B00000F0EEF906460D4650465946019A00F008
:1002C00006FA10EB08006141002487EA115284EA23
:1002D000E7731A4340D0009A62B3019A012A4FEAA9
:1002E000075215DC001B61EB02014FF0004202EAED
:1002F0000752CDE90042001C41F5801132462B46E1
:1003000000F03DFA03B0BDE8F08F40462146F9E722
:10031000001B61EB0201001C41F5801300185B41DA
:100320002018A2F5001747EB030140EAD570B61973
:100330006D4111E06D084FEA360645EAC0754FEA97
:100340000752001B61EB0201001C41F580114908B6
:100350004FEA30000019514132462B4603B0BDE848
:10036000F04F00F0FDB90098012240000023D0EBCF
:10037000020263EBE073009821464FEAE074B8EBA9
:10038000000061EB0401E9E783F000435BE781F0E3
:10039000004158E72DE9FE4F81EA030404F00044D0
:1003A00021F0004100944FF0000B23F0004350EA8D
:1003B00001045ED052EA03045BD0C3F30A54C1F3D4
:1003C0000A552C44A4F2F3340194A0FB0254C1F367
:1003D000130141F48011C3F3130343F4801301FBB1
:1003E000024400FB034E840A970A44EA815447EA18
:1003F0008357A4FB076802958D0A05FB07854FEA22
:10040000932C04FB0C542705029D4FEA065847EA3B
:100410001637B5EB08056EEB070C870E920E47EA10
:10042000811742EA8312A7FB0201B6EB0B0164EBD2
:1004300000042B0D43EA0C335E1844EB1C50DA46E3
:100440005146E7FB0201C5F313044FEA0B3343EABD
:1004500014534FEA0432019C43EA0603A4F10C044E
:100460000294009CCDE900B400F089F903B0BDE826
:10047000F08F00200146F9E72DE9F04D81EA0304F1
:1004800004F0004B21F0004514464FF0000A23F021
:10049000004150EA050220D054EA01021DD0C5F304
:1004A0000A570246C5F31303C1F31300C1F30A56FA
:1004B00040F4801543F48013A7EB0608101BD646C2
:1004C00008F2FD3873EB050002D308F1010801E0E2
:1004D00092185B41B8F1000F03DA00200146BDE835
:1004E000F08D00204FF48011064684460EE0171B65
:1004F00073EB050705D3121B63EB050306434CEAB8
:10050000010C49084FEA300092185B4150EA01079C
:10051000EDD152EA030012D082EA040083EA050119
:10052000084305D0101BAB4106D20122002306E090
:1005300000224FF0004302E06FF0010253101AEB6B
:1005400006004CEB085110EB0A0041EB0B01BDE833
:10055000F04D00F005B90EB5C10F80EAE070084417
:10056000CA07002140F233438DE80E000A460B46CD
:1005700000F005F903B000BD0EB540F23341029121
:100580000021CDE900110A460B4600F0F8F803B04F
:1005900000BD70B5C1F30A5201F000450024C1F35B
:1005A000130140F2FF3341F480119A4201DA002036
:1005B00070BD40F233439A42A2F2334203DC52420E
:1005C00000F075F800E090402C43F1D0404270BD3F
:1005D00000F0004230F000400AD0C10D01F560711A
:1005E000C0F3160042EA0151C208400711437047A8
:1005F000002001467047000030B5041E71F1000470
:1006000004DB4FF00044404264EB0101141E73F11F
:10061000000405DB1C464FF00043524263EB040329
:100620008B4208BF824230BD30B5041E71F1000418
:1006300004DB4FF00044404264EB0101141E73F1EF
:10064000000405DB1C464FF00043524263EB0403F9
:10065000994208BF904230BD01F0004330B421F010
:10066000004150EA010206D00A0DA2F56072C1F302
:100670001301002A02DC30BC00207047440F44EA1A
:10068000C104C100E01830BC00EBC25000F031B82A
:10069000202A04DB203A00FA02F100207047914042
:1006A000C2F1200320FA03F3194390407047202A37
:1006B00004DB203A21FA02F00021704721FA02F30C
:1006C000D040C2F120029140084319467047202AC9
:1006D00006DBCB17203A41FA02F043EAE07306E06A
:1006E00041FA02F3D040C2F120029140084319467A
:1006F00070470029A8BF7047401C490008BF20F080
:100700000100704710B4B0FA80FC00FA0CF050EA17
:10071000010404BF10BC704749B1CCF1200421FA98
:1007200004F411FA0CF118BF012121430843A3EB93
:100730000C01CB1D4FEA00614FEA102042BF0020A0
:1007400010BC704700EBC35010440029A4BF10BC7C
:100750007047401C490008BF20F0010010BC7047E2
:1007600010B5141E73F1000408DA401C41F10001B9
:1007700092185B411A4301D120F0010010BD2DE910
:10078000F04D92469B4611B1B1FA81F202E0B0FA07
:1007900080F220329046FFF77BFF04460F4640EA86
:1007A0000A0041EA0B0153465A46084313D011464A
:1007B00053EA010019D0C8F140025046FFF777FF15
:1007C00005460E46504659464246FFF761FF08432C
:1007D00005D0012004E020463946BDE8F08D002018
:1007E000054346EAE0762C4337430A986305E40A5A
:1007F000A0EB08000022FD0A44EA47540A3002D563
:1008000000200146E9E7010510196941DDE90845C5
:1008100000196941BDE8F04DA2E70000064C074D04
:1008200006E0E06840F0010394E8070098471034C0
:10083000AC42F6D3FFF7ACFCF8190108181A01080E
:1008400010B5002417E004EB4401C1EB44110B4A3E
:1008500002EBC10101F10C009FED091ADFED090A5D
:100860009FED090A4FF4FA6341F28832032109F03F
:10087000DFF8601CC4B2042CE5DB10BD4001002091
:10088000000000009A99993E9A99D94000BFFEE76E
:1008900000B58BB000200790012008900020019047
:1008A0000290039004900590012009900E200A9078
:1008B0000020069001A9064803F082FD02210448A9
:1008C00003F0D2FC024804F01EF90BB000BD00009A
:1008D000BC05002010B5024803F0C9FE10BD0000A1
:1008E000BC0500200268A2F2012232B1012A1BD00D
:1008F000022A34D0032A68D14CE04A780B7842EAC5
:100900000322334B1A80CA788B7842EA032212B250
:100910002F4B5A804A790B7942EA032212B22C4BB0
:100920009A808A79DA8050E04A780B7842EA03228A
:10093000274BA3F8E820CA788B7842EA032213B247
:10094000234AA2F8EA304A790B7942EA032213B229
:100950001F4AA2F8EC308B79A2F8EE3035E04A78E5
:100960000B7842EA03221A4BA3F8D021CA788B787D
:1009700042EA032213B2164AA2F8D2314A790B791D
:1009800042EA032213B2124AA2F8D4318B79A2F8B8
:10099000D6311AE04A780B7842EA03220C4BA3F8CE
:1009A000B822CA788B7842EA032213B2084AA2F826
:1009B000BA324A790B7942EA032213B2044AA2F806
:1009C000BC328B79A2F8BE3200BF00BF7047000076
:1009D000400100202DE9F04107460C4615461E4611
:1009E0004FF400700D49086000208860C86008203E
:1009F0000861380A0A4908704F70200A8870CC7064
:100A0000280A08714D71300A8871CE71054B0A466B
:100A10000249054803F03EFCBDE8F081880500204E
:100A20007000002080000020BC05002010B50024CC
:100A300036E004EB4401C1EB44111B4A02EBC10157
:100A4000B1F9081001EE101AB8EEC11AF0EE410A21
:100A500004EB4401C1EB441102EBC101B1F90210F6
:100A600001EE101AB8EEC11AB0EE410A04EB4401CF
:100A7000C1EB441102EBC10101F10C0008F0CEFE04
:100A8000BDEEC00A10EE100A00B204EB4401C1EB47
:100A90004411054A02EBC101A1F8E400601CC4B294
:100AA000042CC6DB10BD00004001002010B5044638
:100AB000092C6ED2DFE804F06D05121F2C39465365
:100AC000600002F0ADFF64200BF0EEFC02F0A8FF26
:100AD00064200BF0E9FC02F0A3FF5AE002F0B0FF43
:100AE00064200BF0E1FC02F0ABFF64200BF0DCFCB7
:100AF00002F0A6FF4DE002F0EFF964200BF0D4FC09
:100B000002F0EAF964200BF0CFFC02F0E5F940E0D6
:100B100002F002FA64200BF0C7FC02F0FDF9642039
:100B20000BF0C2FC02F0F8F933E002F0E5F96420C2
:100B30000BF0BAFC02F0E0F964200BF0B5FC02F017
:100B4000DBF926E002F05CFF64200BF0ADFC02F064
:100B500057FF64200BF0A8FC02F052FF19E002F0EE
:100B60007FFF64200BF0A0FC02F07AFF64200BF002
:100B70009BFC02F075FF0CE002F0DEF964200BF044
:100B800093FC02F0D9F964200BF08EFC02F0D4F94A
:100B900000BF00BF10BD000010B59FED350A3548FD
:100BA00080ED000A9FED320A80ED010A9FED300AC8
:100BB00080ED050A9FED2E0A80ED040A9FED2C0AB8
:100BC00080ED100A9FED2A0A80ED070A9FED280AA2
:100BD00080ED080A9FED260A80ED090A00202549CC
:100BE00008850021234841850020224A1063506374
:100BF000002220488263C26301221F491F4805F07A
:100C0000A5FE01221E491F4805F0A0FE01221E4933
:100C10001E4805F09BFE01221D491E4805F096FE68
:100C200006F0FAF818211C4805F014F818211B48A2
:100C300005F010F800211A4805F071F9184804F081
:100C40008DFE184804F08AFE0021174805F03CFB91
:100C50000421154805F038FBDFED051A9FED041A55
:100C6000DFED030A9FED020A09F0B8FD10BD000098
:100C700000000000E004002095000020E00A0020B1
:100C8000800A0020200B0020C6000020600B0020FE
:100C900096000020A00A002070060020AC0600206C
:100CA00034060020E8060020240700207047704723
:100CB00070B504461D460023B5F5804F13D154F896
:100CC00022300C480340D1E9000640EA06108E6845
:100CD00040EA06208E8940EA06408E69304303438D
:100CE00044F8223003E06FF0704044F82200002006
:100CF00070BD00000000F0CF10B503460022086868
:100D000053F8202012480240D1E901042043CC6866
:100D100020430C6920434C6920438C692043CC69F3
:100D200020430C6A20434C6A20438C6A2043CC6ADF
:100D30002043CC6B20430C6B204302438868082877
:100D400001D142F04002086843F82020002010BD85
:100D50008000F0FF30B503460024501C53F82040BB
:100D600004F04044D1E9000540EA05108D6840EAEE
:100D700005208D8940EA0545088A401E45EA005550
:100D8000087D801E45EA00608D6928430443501C9D
:100D900043F82040002030BD70B52DED048B054692
:100DA0009FEDFE0AF0EE408A0124FD4890ED050A11
:100DB000B0EE409A9FEDFB0AB0EE408A2846FFF75E
:100DC00075FEDFEDF81A9FEDF71ADFEDF60A9FEDDD
:100DD000F50A09F003FD07F0FBFE0020F249088048
:100DE000F24908804BE200BFF148008800F400405F
:100DF0000028F9D000BFEF48008800F40040002828
:100E0000F9D003F01BF840B944B12046611CCCB2C4
:100E1000052803DB14B1002400E0012402F088FF60
:100E2000F4BBDF4890ED050A30EE490AB0EE408A87
:100E30009FEDE10AB4EEC08AF1EE10FA06DD9FEDF7
:100E4000DF0AB4EEC08AF1EE10FA0DD39FEDDC0A92
:100E5000B4EEC08AF1EE10FA0AD29FEDDA0AB4EECF
:100E6000C08AF1EE10FA03DD9FEDD70AF0EE408A5A
:100E70009FEDD60AB4EEC08AF1EE10FA06D29FEDCD
:100E8000D00AB4EEC08AF1EE10FA0FDC9FEDCB0A67
:100E9000B4EEC08AF1EE10FA0CDD9FEDCB0A00E053
:100EA00015E0B4EEC08AF1EE10FA03D29FEDC50A48
:100EB000F0EE408AF0EE681AB0EE681AF0EE680ABA
:100EC000B0EE680A09F08AFC07F082FED7E1B84864
:100ED000C06AB0F57A6F0AD9DFEDB21A9FEDB11A88
:100EE000DFEDB00A9FEDAF0A09F078FCC7E1B0482A
:100EF000006BB0F5947F2ED99FEDAA1ADFEDA90AF9
:100F00009FEDB30A02F0C8FEB248B0F9C00202EE8B
:100F1000100AB8EEC22AF0EE421AAE48B0F9D80173
:100F200002EE100AB8EEC22AB0EE421AA948B0F991
:100F3000F00002EE100AB8EEC22AF0EE420AA5480E
:100F4000B0F9080002EE100AB8EEC22AB0EE420A6A
:100F500009F044FC93E19648006BD8282ED29FED0F
:100F6000911ADFED900A9FED9C0A02F095FE9948D8
:100F7000B0F9C00202EE100AB8EEC22AF0EE421A30
:100F80009448B0F9D80102EE100AB8EEC22AB0EEC9
:100F9000421A9048B0F9F00002EE100AB8EEC22AE8
:100FA000F0EE420A8B48B0F9080002EE100AB8EEE3
:100FB000C22AB0EE420A09F011FC60E17C48C06A26
:100FC000B0F5FA6F2ED99FED771ADFED840A9FED09
:100FD000750A02F061FE7F48B0F9C00202EE100A05
:100FE000B8EEC22AF0EE421A7A48B0F9D80102EE01
:100FF000100AB8EEC22AB0EE421A7648B0F9F000F4
:1010000002EE100AB8EEC22AF0EE420A7148B0F9B8
:10101000080002EE100AB8EEC22AB0EE420A09F049
:10102000DDFB2CE16248006BE2282ED29FED5D1AB9
:10103000DFED5C0A9FED590A02F02EFE6548B0F91B
:10104000C00202EE100AB8EEC22AF0EE421A61485F
:10105000B0F9D80102EE100AB8EEC22AB0EE421A78
:101060005C48B0F9F00002EE100AB8EEC22AF0EEC9
:10107000420A5848B0F9080002EE100AB8EEC22A37
:10108000B0EE420A09F0AAFBF9E04948006BB0F55E
:101090008F7F2ED99FED431ADFED420A9FED500A54
:1010A00002F0FAFD4B48B0F9C00202EE100AB8EEA9
:1010B000C22AF0EE421A4748B0F9D80102EE100AEF
:1010C000B8EEC22AB0EE421A4248B0F9F00002EE81
:1010D000100AB8EEC22AF0EE420A3E48B0F9080003
:1010E00002EE100AB8EEC22AB0EE420A09F076FB10
:1010F000C5E02F48C06AB0F57A7F2ED99FED291A36
:10110000DFED380A9FED270A02F0C6FD3148B0F93D
:10111000C00202EE100AB8EEC22AF0EE421A2D48C2
:10112000B0F9D80102EE100AB8EEC22AB0EE421AA7
:101130002848B0F9F00002EE100AB8EEC22AF0EE2C
:10114000420A2448B0F9080002EE100AB8EEC22A9A
:10115000B0EE420A09F042FB91E01548006BF1281D
:1011600058D29FED101ADFED0F0A9FED1F0A02F013
:1011700093FD1848B0F9C00202EE100AB8EEC22A78
:10118000F0EE421A1348B0F9D80102EE100AB8EE98
:10119000C22AB0EE421A0F4828E0000000001644B0
:1011A000E0040020000000008C00002090000020DF
:1011B00008010020E40000200000704200003443D9
:1011C000000034C3000096C300009643000070C2C4
:1011D0000000C8C3400100200000C8430080BB4499
:1011E000000016C400007A4400004843B0F9F00043
:1011F00002EE100AB8EEC22AF0EE420AF748B0F941
:10120000080002EE100AB8EEC22AB0EE420A09F057
:10121000E5FA34E0F248006BB0F5887F2ED31FED7D
:101220001F1A5FED200A9FEDEF0A02F035FDEB4833
:10123000B0F9C00202EE100AB8EEC22AF0EE421A6D
:10124000E648B0F9D80102EE100AB8EEC22AB0EEB4
:10125000421AE248B0F9F00002EE100AB8EEC22AD3
:10126000F0EE420ADD48B0F9080002EE100AB8EECE
:10127000C22AB0EE420A09F0B1FA00E000E0B2E59D
:1012800000BFD9488069B0F57A7F78D982E100BF84
:10129000D348008800F400400028F9D002F048FD4F
:1012A000D1488069B0F57A7F00D274E102F0C6FDC2
:1012B000CB48006BB0F58F7F2ED91FED461A5FED3E
:1012C000470A9FEDCA0A02F0E7FCC448B0F9C00221
:1012D00002EE100AB8EEC22AF0EE421ABF48B0F988
:1012E000D80102EE100AB8EEC22AB0EE421ABB488C
:1012F000B0F9F00002EE100AB8EEC22AF0EE420A8F
:10130000B648B0F9080002EE100AB8EEC22AB0EEF4
:10131000420A09F063FA3DE1B148006BE2282FD29E
:101320001FED601A5FED610A9FEDB10A02F0B4FC97
:10133000AA48B0F9C00202EE100AB8EEC22AF0EED6
:10134000421AA648B0F9D80102EE100AB8EEC22A35
:10135000B0EE421AA148B0F9F00002EE100AB8EE61
:10136000C22AF0EE420A9D48B0F9080002EE100AC7
:10137000B8EEC22AB0EE420A09F030FA0AE10BE1F7
:101380009748C06AB0F57A7F2ED91FED7A1A5FEDC3
:101390006B0A1FED7C0A02F07FFC9048B0F9C00296
:1013A00002EE100AB8EEC22AF0EE421A8B48B0F9EB
:1013B000D80102EE100AB8EEC22AB0EE421A8748EF
:1013C000B0F9F00002EE100AB8EEC22AF0EE420ABE
:1013D0008248B0F9080002EE100AB8EEC22AB0EE58
:1013E000420A09F0FBF9D5E07D48006BEC282ED2CB
:1013F0001FED941A5FED950A1FED980A02F04CFC60
:101400007648B0F9C00202EE100AB8EEC22AF0EE39
:10141000421A7248B0F9D80102EE100AB8EEC22A98
:10142000B0EE421A6D48B0F9F00002EE100AB8EEC4
:10143000C22AF0EE420A6948B0F9080002EE100A2A
:10144000B8EEC22AB0EE420A09F0C8F9A2E0644838
:10145000006BB0F58A7F2ED91FEDAE1A5FEDAF0A93
:101460001FEDA10A02F018FC5C48B0F9C00202EEC0
:10147000100AB8EEC22AF0EE421A5848B0F9D80164
:1014800002EE100AB8EEC22AB0EE421A5348B0F982
:10149000F00002EE100AB8EEC22AF0EE420A4F48FF
:1014A000B0F9080002EE100AB8EEC22AB0EE420A05
:1014B00009F094F96EE04A48C06AB0F52F7F2ED942
:1014C0001FEDC81ADFED4B0A1FEDCA0A02F0E4FB5C
:1014D0004248B0F9C00202EE100AB8EEC22AF0EE9D
:1014E000421A3E48B0F9D80102EE100AB8EEC22AFC
:1014F000B0EE421A3948B0F9F00002EE100AB8EE28
:10150000C22AF0EE420A3548B0F9080002EE100A8D
:10151000B8EEC22AB0EE420A09F060F93AE05FED97
:10152000DF1A1FEDE01A5FEDE10A1FEDE20A09F094
:1015300055F909F00DF91FEDE51ADFED2F0A1FED42
:10154000E70A02F0A9FB2548B0F9C00202EE100A32
:10155000B8EEC22AF0EE421A2048B0F9D80102EEE5
:10156000100AB8EEC22AB0EE421A1C48B0F9F000D8
:1015700002EE100AB8EEC22AF0EE420A1748B0F99D
:10158000080002EE100AB8EEC22AB0EE420A09F0D4
:1015900025F900E07BE600BF13488069B0F57A7F4B
:1015A0007DD8AAE100BF1048008800F40040002860
:1015B000F9D002F043FC11480068012800D19DE1F8
:1015C00002F0B6FBF0B9DFED0E1A9FED0D1ADFED5C
:1015D0000C0A9FED0B0A09F001F98EE14001002091
:1015E00008010020000048C3E4000020000048C4B7
:1015F0000000484400002F440000FA430802414222
:1016000000000000C748C069FF282ED81FED041A4B
:101610005FED050A9FEDC40A02F03EFBC348B0F936
:10162000C00202EE100AB8EEC22AF0EE421ABF481B
:10163000B0F9D80102EE100AB8EEC22AB0EE421A92
:10164000BA48B0F9F00002EE100AB8EEC22AF0EE85
:10165000420AB648B0F9080002EE100AB8EEC22AF3
:10166000B0EE420A09F0BAF846E1AE48C069B0F5FA
:101670008A7F30D91FED1E1A5FED1F0A9FEDAC0A5D
:1016800002F00AFBA948B0F9C00202EE100AB8EE57
:10169000C22AF0EE421AA548B0F9D80100E02EE1C6
:1016A00002EE100AB8EEC22AB0EE421A9F48B0F914
:1016B000F00002EE100AB8EEC22AF0EE420A9B4891
:1016C000B0F9080002EE100AB8EEC22AB0EE420AE3
:1016D00009F084F810E193488069B0F5487F2ED96D
:1016E0001FED391ADFED930A1FED3B0A02F0D4FA21
:1016F0008E48B0F9C00202EE100AB8EEC22AF0EE2F
:10170000421A8A48B0F9D80102EE100AB8EEC22A8D
:10171000B0EE421A8548B0F9F00002EE100AB8EEB9
:10172000C22AF0EE420A8148B0F9080002EE100A1F
:10173000B8EEC22AB0EE420A09F050F8DCE079486F
:10174000C069B0F5837F2ED81FED531A5FED540AA0
:101750009FED790A02F0A0FA7448B0F9C00202EED7
:10176000100AB8EEC22AF0EE421A7048B0F9D80159
:1017700002EE100AB8EEC22AB0EE421A6B48B0F977
:10178000F00002EE100AB8EEC22AF0EE420A6748F4
:10179000B0F9080002EE100AB8EEC22AB0EE420A12
:1017A00009F01CF8A8E05F48C069B0F5877F2ED328
:1017B0001FED6D1A5FED6E0A9FED600A02F06CFA84
:1017C0005A48B0F9C00202EE100AB8EEC22AF0EE92
:1017D000421A5648B0F9D80102EE100AB8EEC22AF1
:1017E000B0EE421A5148B0F9F00002EE100AB8EE1D
:1017F000C22AF0EE420A4D48B0F9080002EE100A83
:10180000B8EEC22AB0EE420A08F0E8FF74E045489C
:10181000806940F2262188422ED91FED871A5FED9C
:101820008C0A1FED890A02F037FA4048B0F9C0026D
:1018300002EE100AB8EEC22AF0EE421A3B48B0F9A6
:10184000D80102EE100AB8EEC22AB0EE421A3748AA
:10185000B0F9F00002EE100AB8EEC22AF0EE420A29
:101860003248B0F9080002EE100AB8EEC22AB0EE13
:10187000420A08F0B3FF3FE05FED9F1A1FEDA01A88
:101880005FEDA10A1FEDA20A08F0A8FF08F060FFB3
:101890001FEDA51A5FEDA80A1FEDA70A02F0FCF9DB
:1018A0002248B0F9C00202EE100AB8EEC22AF0EEE9
:1018B000421A1E48B0F9D80102EE100AB8EEC22A48
:1018C000B0EE421A1948B0F9F00002EE100AB8EE74
:1018D000C22AF0EE420A1548B0F9080002EE100ADA
:1018E000B8EEC22AB0EE420A08F078FF0D488069CF
:1018F000B0F5827F00D201E000BF53E600BF02F0E6
:10190000BFF85FEDC11A1FEDC21A5FEDC30A1FEDEC
:10191000C40A08F063FF08F03DFF07F059F9BDEC79
:10192000048B70BDE4000020000016C440010020BC
:101930000000164400007A440000C8C30000C843F9
:1019400070B52DED048B05469FEDFE0AF0EE408A42
:101950000124FD4890ED050AB0EE409A9FEDFB0A88
:10196000B0EE408A2846FFF7A1F8DFEDF81A9FEDA8
:10197000F71ADFEDF60A9FEDF50A08F02FFF07F0E2
:1019800027F90020F2490880F24908804DE200BFA3
:10199000F148008800F400400028F9D000BFEF486B
:1019A000008800F400400028F9D002F047FA40B95E
:1019B00044B12046611CCCB2052803DB14B10024DD
:1019C00000E0012402F0B4F9F4BBDF4890ED050A11
:1019D00030EE490AB0EE408A9FEDE10AB4EEC08ACB
:1019E000F1EE10FA06DD9FEDDF0AB4EEC08AF1EEEB
:1019F00010FA0DD39FEDDC0AB4EEC08AF1EE10FAB6
:101A00000AD29FEDDA0AB4EEC08AF1EE10FA03DDD5
:101A10009FEDD70AF0EE408A9FEDD60AB4EEC08A59
:101A2000F1EE10FA06D29FEDD00AB4EEC08AF1EEC4
:101A300010FA0FDC9FEDCB0AB4EEC08AF1EE10FA7B
:101A40000CDD9FEDCD0A00E015E0B4EEC08AF1EEAA
:101A500010FA03D29FEDC90AF0EE408AF0EE681A40
:101A6000B0EE681AF0EE680AB0EE680A08F0B6FE4A
:101A700007F0AEF8D9E1B848C06AB0F57A6F0AD974
:101A8000DFEDB21A9FEDB11ADFEDB00A9FEDAF0A9C
:101A900008F0A4FEC9E1B048006BB0F58F7F2ED9E5
:101AA0009FEDAA1ADFEDA90A9FEDB50A02F0F4F83E
:101AB000B448B0F9C00202EE100AB8EEC22AF0EE45
:101AC000421AB048B0F9D80102EE100AB8EEC22AA4
:101AD000B0EE421AAB48B0F9F00002EE100AB8EED0
:101AE000C22AF0EE420AA748B0F9080002EE100A36
:101AF000B8EEC22AB0EE420A08F070FE95E19648B0
:101B0000006BE2282ED29FED911ADFED900A9FED37
:101B10009E0A02F0C1F89B48B0F9C00202EE100A1A
:101B2000B8EEC22AF0EE421A9648B0F9D80102EE99
:101B3000100AB8EEC22AB0EE421A9248B0F9F0008C
:101B400002EE100AB8EEC22AF0EE420A8D48B0F951
:101B5000080002EE100AB8EEC22AB0EE420A08F0FF
:101B60003DFE62E17C48006BEC282ED29FED771A97
:101B7000DFED760A9FED7E0A02F08EF88148B0F91B
:101B8000C00202EE100AB8EEC22AF0EE421A7D48F8
:101B9000B0F9D80102EE100AB8EEC22AB0EE421A2D
:101BA0007848B0F9F00002EE100AB8EEC22AF0EE62
:101BB000420A7448B0F9080002EE100AB8EEC22AD0
:101BC000B0EE420A08F00AFE2FE16348006BB0F560
:101BD0008A7F2ED99FED5D1ADFED5C0A9FED670AC3
:101BE00002F05AF86748B0F9C00202EE100AB8EEE7
:101BF000C22AF0EE421A6348B0F9D80102EE100A88
:101C0000B8EEC22AB0EE421A5E48B0F9F00002EE19
:101C1000100AB8EEC22AF0EE420A5A48B0F908009B
:101C200002EE100AB8EEC22AB0EE420A08F0D6FD63
:101C3000FBE04948006BF6282ED29FED441ADFEDF9
:101C4000430A9FED520A02F027F84E48B0F9C0024D
:101C500002EE100AB8EEC22AF0EE421A4948B0F974
:101C6000D80102EE100AB8EEC22AB0EE421A454878
:101C7000B0F9F00002EE100AB8EEC22AF0EE420A05
:101C80004048B0F9080002EE100AB8EEC22AB0EEE1
:101C9000420A08F0A3FDC8E02F48006BB0F5857F2D
:101CA0002ED99FED2A1ADFED290A9FED390A01F09E
:101CB000F3FF3448B0F9C00202EE100AB8EEC22AAF
:101CC000F0EE421A2F48B0F9D80102EE100AB8EE31
:101CD000C22AB0EE421A2B48B0F9F00002EE100A08
:101CE000B8EEC22AF0EE420A2648B0F9080002EE29
:101CF000100AB8EEC22AB0EE420A08F06FFD94E076
:101D00001548C06AB0F5FA6F5AD99FED101ADFED89
:101D1000210A9FED0E0A01F0BFFF1A48B0F9C00278
:101D200002EE100AB8EEC22AF0EE421A1548B0F9D7
:101D3000D80102EE100AB8EEC22AB0EE421A1148DB
:101D40002AE0000000001644E0040020000000002B
:101D50008C0000209000002008010020E4000020FA
:101D60000000704200003443000034C300809DC373
:101D700000009643000070C200809D43000096C39F
:101D80000000FAC3400100200000FA43000048436D
:101D9000000048C30080BB44B0F9F00002EE100A16
:101DA000B8EEC22AF0EE420AFE48B0F9080002EE90
:101DB000100AB8EEC22AB0EE420A08F00FFD34E075
:101DC000F948C06AB0F57A7F2ED91FED201ADFEDF1
:101DD000F70A1FED220A01F05FFFF248B0F9C002D6
:101DE00002EE100AB8EEC22AF0EE421AED48B0F93F
:101DF000D80102EE100AB8EEC22AB0EE421AE94843
:101E0000B0F9F00002EE100AB8EEC22AF0EE420A73
:101E1000E448B0F9080002EE100AB8EEC22AB0EEAB
:101E2000420A08F0DBFC00E000E0B0E500BFE0485B
:101E30008069B0F57A7F72D97CE100BFDA4800880A
:101E400000F400400028F9D001F072FF01F0F6FF25
:101E5000D548006BB0F58F7F2ED91FED441A5FED8A
:101E6000450A9FEDD40A01F017FFCE48B0F9C00231
:101E700002EE100AB8EEC22AF0EE421AC948B0F9D2
:101E8000D80102EE100AB8EEC22AB0EE421AC548D6
:101E9000B0F9F00002EE100AB8EEC22AF0EE420AE3
:101EA000C048B0F9080002EE100AB8EEC22AB0EE3F
:101EB000420A08F093FC3DE1BB48006BE2282FD2B8
:101EC0001FED5E1A5FED5F0A9FEDBB0A01F0E4FEB5
:101ED000B448B0F9C00202EE100AB8EEC22AF0EE21
:101EE000421AB048B0F9D80102EE100AB8EEC22A80
:101EF000B0EE421AAB48B0F9F00002EE100AB8EEAC
:101F0000C22AF0EE420AA748B0F9080002EE100A11
:101F1000B8EEC22AB0EE420A08F060FC0AE10BE11A
:101F2000A148006BEC282ED21FED781A5FED790ADC
:101F30001FED7C0A01F0B0FE9A48B0F9C00202EE33
:101F4000100AB8EEC22AF0EE421A9648B0F9D8014B
:101F500002EE100AB8EEC22AB0EE421A9148B0F969
:101F6000F00002EE100AB8EEC22AF0EE420A8D48E6
:101F7000B0F9080002EE100AB8EEC22AB0EE420A2A
:101F800008F02CFCD6E08848006BB0F58A7F2ED98B
:101F90001FED921A5FED930A9FED880A01F07CFE17
:101FA0008048B0F9C00202EE100AB8EEC22AF0EE84
:101FB000421A7C48B0F9D80102EE100AB8EEC22AE3
:101FC000B0EE421A7748B0F9F00002EE100AB8EE0F
:101FD000C22AF0EE420A7348B0F9080002EE100A75
:101FE000B8EEC22AB0EE420A08F0F8FBA2E06E4852
:101FF000C06AB0F57A7F2ED91FEDAC1ADFED6B0AFF
:102000001FEDAE0A01F048FE6648B0F9C00202EECC
:10201000100AB8EEC22AF0EE421A6248B0F9D801AE
:1020200002EE100AB8EEC22AB0EE421A5D48B0F9CC
:10203000F00002EE100AB8EEC22AF0EE420A594849
:10204000B0F9080002EE100AB8EEC22AB0EE420A59
:1020500008F0C4FB6EE05448C06AB0F52F7F2ED95B
:102060001FEDC61ADFED560A1FEDC80A01F014FE77
:102070004C48B0F9C00202EE100AB8EEC22AF0EEE7
:10208000421A4848B0F9D80102EE100AB8EEC22A46
:10209000B0EE421A4348B0F9F00002EE100AB8EE72
:1020A000C22AF0EE420A3F48B0F9080002EE100AD8
:1020B000B8EEC22AB0EE420A08F090FB3AE05FEDBB
:1020C000DD1A1FEDDE1A5FEDDF0A1FEDE00A08F0F2
:1020D00085FB08F03DFB1FEDE31A5FEDD50A1FED10
:1020E000E50A01F0D9FD2F48B0F9C00202EE100A4E
:1020F000B8EEC22AF0EE421A2A48B0F9D80102EE30
:10210000100AB8EEC22AB0EE421A2648B0F9F00022
:1021100002EE100AB8EEC22AF0EE420A2148B0F9E7
:10212000080002EE100AB8EEC22AB0EE420A08F029
:1021300055FB00E081E600BF1D488069B0F57A7F5D
:102140007ED8ABE100BF1A48008800F400400028A8
:10215000F9D001F073FE1B480068012800D19EE110
:1021600001F0E6FD50B9DFED181A9FED171ADFED0B
:10217000160A9FED150A08F031FB8FE10C48C06983
:10218000FF2843D89FED101ADFED0F0A9FED0B0AD1
:1021900001F082FD0348B0F9C00202EE100AB8EE69
:1021A000C22A13E0400100200801002000007A4408
:1021B000E4000020000048C400004844000016C4A9
:1021C00000002F440802414200000000F0EE421AD5
:1021D000BD48B0F9D80102EE100AB8EEC22AB0EE3E
:1021E000421AB948B0F9F00002EE100AB8EEC22A5D
:1021F000F0EE420AB448B0F9080002EE100AB8EE58
:10220000C22AB0EE420A08F0E9FA46E1AF48C069D6
:10221000B0F58A7F30D91FED141A5FED150A9FEDD6
:10222000AC0A01F039FDA848B0F9C00202EE100A6C
:10223000B8EEC22AF0EE421AA348B0F9D80100E085
:102240002EE102EE100AB8EEC22AB0EE421A9E4803
:10225000B0F9F00002EE100AB8EEC22AF0EE420A1F
:102260009948B0F9080002EE100AB8EEC22AB0EEA2
:10227000420A08F0B3FA10E194488069B0F5487F4B
:102280002ED91FED2F1A5FED370A1FED310A01F02D
:1022900003FD8D48B0F9C00202EE100AB8EEC22A62
:1022A000F0EE421A8848B0F9D80102EE100AB8EEF2
:1022B000C22AB0EE421A8448B0F9F00002EE100AC9
:1022C000B8EEC22AF0EE420A7F48B0F9080002EEEA
:1022D000100AB8EEC22AB0EE420A08F07FFADCE03B
:1022E0007A48C069B0F5837F2ED81FED491A5FED9B
:1022F0004A0A9FED780A01F0CFFC7348B0F9C0029A
:1023000002EE100AB8EEC22AF0EE421A6E48B0F998
:10231000D80102EE100AB8EEC22AB0EE421A6A489C
:10232000B0F9F00002EE100AB8EEC22AF0EE420A4E
:102330006548B0F9080002EE100AB8EEC22AB0EE05
:10234000420A08F04BFAA8E06048C069B0F5877F00
:102350002ED31FED631A5FED640A9FED5F0A01F053
:102360009BFC5948B0F9C00202EE100AB8EEC22A2E
:10237000F0EE421A5448B0F9D80102EE100AB8EE55
:10238000C22AB0EE421A5048B0F9F00002EE100A2C
:10239000B8EEC22AF0EE420A4B48B0F9080002EE4D
:1023A000100AB8EEC22AB0EE420A08F017FA74E03A
:1023B0004648806940F2262188422ED91FED7E1AB8
:1023C0005FED830A1FED800A01F066FC3E48B0F91C
:1023D000C00202EE100AB8EEC22AF0EE421A3A48E3
:1023E000B0F9D80102EE100AB8EEC22AB0EE421AD5
:1023F0003548B0F9F00002EE100AB8EEC22AF0EE4D
:10240000420A3148B0F9080002EE100AB8EEC22ABA
:10241000B0EE420A08F0E2F93FE05FED951A1FEDD9
:10242000961A5FED970A1FED980A08F0D7F908F0A1
:102430008FF91FED9B1ADFED290A1FED9D0A01F0B0
:102440002BFC2148B0F9C00202EE100AB8EEC22AF5
:10245000F0EE421A1C48B0F9D80102EE100AB8EEAC
:10246000C22AB0EE421A1848B0F9F00002EE100A83
:10247000B8EEC22AF0EE420A1348B0F9080002EEA4
:10248000100AB8EEC22AB0EE420A08F0A7F90F48C7
:102490008069B0F5827F00D201E000BF52E600BF44
:1024A00001F0EEFA5FEDB81A1FEDB91A5FEDBA0A46
:1024B0001FEDBB0A08F092F908F06CF906F088FBF2
:1024C000BDEC048B70BD000040010020E400002042
:1024D000000016440000C8C30000C8430000FA43CF
:1024E00070B52DED048B05469FEDFD0AF0EE408A98
:1024F0000124FC4890ED050AB0EE409A9FEDFA0ADF
:10250000B0EE408A2846FEF7D1FADFEDF71A9FEDCC
:10251000F61ADFEDF50A9FEDF40A08F05FF906F010
:1025200057FB0020F1490880F1490880F1490880F3
:10253000F149088000BF00BFEE48008800F4004069
:102540000028F9D001F07AFC48B94CB12046611C52
:10255000CCB2052800DAC7E214B1002400E001245F
:10256000F4BBE04890ED050A30EE490AB0EE408A2F
:102570009FEDE20AB4EEC08AF1EE10FA06DD9FED9F
:10258000E00AB4EEC08AF1EE10FA0DD39FEDDD0A39
:10259000B4EEC08AF1EE10FA0AD29FEDDB0AB4EE77
:1025A000C08AF1EE10FA03DD9FEDD80AF0EE408A02
:1025B0009FEDD70AB4EEC08AF1EE10FA06D29FED75
:1025C000D10AB4EEC08AF1EE10FA0FDC9FEDCC0A0E
:1025D000B4EEC08AF1EE10FA0CDD9FEDCC0A00E0FB
:1025E00015E0B4EEC08AF1EE10FA03D29FEDC60AF0
:1025F000F0EE408AF0EE681AB0EE681AF0EE680A63
:10260000B0EE680A08F0EAF806F0E2FA6BE2B948C0
:10261000C06AB0F57A6F2BD900221146104601F03E
:102620004DFABC48B0F9C00202EE100AB8EEC22A58
:10263000F0EE421AB748B0F9D80102EE100AB8EE2F
:10264000C22AB0EE421AB348B0F9F00002EE100A06
:10265000B8EEC22AF0EE420AAE48B0F9080002EE27
:10266000100AB8EEC22AB0EE420A08F0B7F83AE211
:10267000A048006BEC282ED29FED9B1ADFED9A0A42
:102680009FEDA50A01F008FBA248B0F9C00202EED6
:10269000100AB8EEC22AF0EE421A9E48B0F9D801EC
:1026A00002EE100AB8EEC22AB0EE421A9948B0F90A
:1026B000F00002EE100AB8EEC22AF0EE420A954887
:1026C000B0F9080002EE100AB8EEC22AB0EE420AD3
:1026D00008F084F807E28748006BB0F58A7F2ED9AE
:1026E0009FED811ADFED800A9FED8C0A01F0D4FA8C
:1026F0008848B0F9C00202EE100AB8EEC22AF0EE25
:10270000421A8448B0F9D80102EE100AB8EEC22A83
:10271000B0EE421A7F48B0F9F00002EE100AB8EEAF
:10272000C22AF0EE420A7B48B0F9080002EE100A15
:10273000B8EEC22AB0EE420A08F050F8D3E16D4874
:10274000C06A40F2145188422ED99FED671ADFED1E
:10275000740A9FED650A01F09FFA6E48B0F9C00255
:1027600002EE100AB8EEC22AF0EE421A6948B0F939
:10277000D80102EE100AB8EEC22AB0EE421A65483D
:10278000B0F9F00002EE100AB8EEC22AF0EE420AEA
:102790006048B0F9080002EE100AB8EEC22AB0EEA6
:1027A000420A08F01BF89EE15248006BE2282ED244
:1027B0009FED4D1ADFED4C0A9FED570A01F06CFAC0
:1027C0005448B0F9C00202EE100AB8EEC22AF0EE88
:1027D000421A5048B0F9D80102EE100AB8EEC22AE7
:1027E000B0EE421A4B48B0F9F00002EE100AB8EE13
:1027F000C22AF0EE420A4748B0F9080002EE100A79
:10280000B8EEC22AB0EE420A07F0E8FF6BE13948A1
:10281000006BB0F58F7F2ED99FED331ADFED320AB2
:102820009FED3E0A01F038FA3A48B0F9C00202EED4
:10283000100AB8EEC22AF0EE421A3648B0F9D801B2
:1028400002EE100AB8EEC22AB0EE421A3148B0F9D0
:10285000F00002EE100AB8EEC22AF0EE420A2D484D
:10286000B0F9080002EE100AB8EEC22AB0EE420A31
:1028700007F0B4FF37E11F48C06AB0F57A7F53D93B
:102880009FED191ADFED270A9FED170A01F004FAF0
:102890002048B0F9C00202EE100AB8EEC22AF0EEEB
:1028A000421A1C48B0F9D80102EE100AB8EEC22A4A
:1028B000B0EE421A1748B0F9F00002EE100AB8EE76
:1028C000C22AF0EE420A1348B0F9080002EE100ADC
:1028D000B8EEC22AB0EE420A07F080FF03E1000022
:1028E00000004843E0040020000000008C000020AD
:1028F0009000002008010020E40000200000704249
:1029000000003443000034C3000096C30000964327
:10291000000070C24001002000001644000016C4F0
:1029200000007A4400004844FE48006BB0F58F7FF9
:1029300033D8FC48006BB0F5857F2ED91FED161AF1
:102940005FED170A1FED100A01F0A6F9F648B0F97D
:10295000C00202EE100AB8EEC22AF0EE421AF248A5
:10296000B0F9D80102EE100AB8EEC22AB0EE421A4F
:10297000ED48B0F9F00002EE100AB8EEC22AF0EE0F
:10298000420AE948B0F9080002EE100AB8EEC22A7D
:10299000B0EE420A07F022FFA5E0E248006BE22811
:1029A00032D3E048006BF6282ED21FED311A5FEDCE
:1029B000320A1FED2A0A01F06FF9DB48B0F9C002B4
:1029C00002EE100AB8EEC22AF0EE421AD648B0F96A
:1029D000D80102EE100AB8EEC22AB0EE421AD2486E
:1029E000B0F9F00002EE100AB8EEC22AF0EE420A88
:1029F000CD48B0F9080002EE100AB8EEC22AB0EED7
:102A0000420A07F0EBFE6EE0C648C06AB0F5617F8F
:102A10002ED91FED4B1ADFEDC50A1FED4D0A01F04F
:102A20003BF9C148B0F9C00202EE100AB8EEC22A62
:102A3000F0EE421ABC48B0F9D80102EE100AB8EE26
:102A4000C22AB0EE421AB848B0F9F00002EE100AFD
:102A5000B8EEC22AF0EE420AB348B0F9080002EE1E
:102A6000100AB8EEC22AB0EE420A07F0B7FE3AE00A
:102A70005FED631A1FED641A5FED650A1FED660ACC
:102A800007F0ACFE07F064FE1FED691A5FED5E0A09
:102A90001FED6B0A01F000F9A348B0F9C00202EE85
:102AA000100AB8EEC22AF0EE421A9F48B0F9D801D7
:102AB00002EE100AB8EEC22AB0EE421A9A48B0F9F5
:102AC000F00002EE100AB8EEC22AF0EE420A964872
:102AD000B0F9080002EE100AB8EEC22AB0EE420ABF
:102AE00007F07CFE01E000BF25E500BF01F020F902
:102AF000D1E100BF8E48008800F400400028F9D0E2
:102B00008C480068012800D1C6E101F011F950B9E4
:102B10005FED8B1A1FED8C1A5FED8D0A1FED8E0A8B
:102B200007F05CFEB7E182488069B0F57A7F2ED964
:102B30001FED931A5FED860A1FED950A01F0ACF8C0
:102B40007948B0F9C00202EE100AB8EEC22AF0EEDF
:102B5000421A7548B0F9D80102EE100AB8EEC22A3E
:102B6000B0EE421A7048B0F9F00002EE100AB8EE6A
:102B7000C22AF0EE420A6C48B0F9080002EE100AD0
:102B8000B8EEC22AB0EE420A07F028FE82E1684899
:102B9000C069FF282ED81FEDAC1A5FEDAD0A1FEDFE
:102BA000A10A01F079F86048B0F9C00202EE100AFB
:102BB000B8EEC22AF0EE421A5B48B0F9D80102EE34
:102BC000100AB8EEC22AB0EE421A5748B0F9F00027
:102BD00002EE100AB8EEC22AF0EE420A5248B0F9EC
:102BE000080002EE100AB8EEC22AB0EE420A07F060
:102BF000F5FD4FE14E48C069B0F58A7F2ED91FED33
:102C0000C61A5FEDC70A1FEDBC0A01F045F8464839
:102C1000B0F9C00202EE100AB8EEC22AF0EE421A73
:102C20004148B0F9D80102EE100AB8EEC22AB0EE5F
:102C3000421A3D48B0F9F00002EE100AB8EEC22A7E
:102C4000F0EE420A3848B0F9080002EE100AB8EE79
:102C5000C22AB0EE420A07F0C1FD1BE13448806988
:102C6000B0F5487F2ED91FEDE01A5FEDD30A1FEDB6
:102C7000E20A01F011F82C48B0F9C00202EE100A85
:102C8000B8EEC22AF0EE421A2748B0F9D80102EE97
:102C9000100AB8EEC22AB0EE421A2348B0F9F0008A
:102CA00002EE100AB8EEC22AF0EE420A1E48B0F94F
:102CB000080002EE100AB8EEC22AB0EE420A07F08F
:102CC0008DFDE7E01A48C069B0F5837F3BD81FED62
:102CD000FA1A5FEDFB0A9FED180A00F0DDFF1248BB
:102CE000B0F9C00202EE100AB8EEC22AF0EE421AA3
:102CF0000D48B0F9D80102EE100AB8EEC22AB0EEC3
:102D0000421A0948B0F9F00002EE100AB8EEC22AE1
:102D1000F0EE420A0448B0F9080002EE100AB8EEDC
:102D2000C22A0BE0080100204001002000002F44CF
:102D3000E4000020080241420000C8C3B0EE420A8D
:102D400007F04CFDA6E05E48C069B0F5877F2ED342
:102D50009FED5C1ADFED5B0A9FED5B0A00F09CFFC4
:102D60005A48B0F9C00202EE100AB8EEC22AF0EEDC
:102D7000421A5648B0F9D80102EE100AB8EEC22A3B
:102D8000B0EE421A5148B0F9F00002EE100AB8EE67
:102D9000C22AF0EE420A4D48B0F9080002EE100ACD
:102DA000B8EEC22AB0EE420A07F018FD72E04448BD
:102DB000806940F2262188422ED99FED421ADFED2C
:102DC000440A9FED400A00F067FF4048B0F9C00296
:102DD00002EE100AB8EEC22AF0EE421A3B48B0F9F1
:102DE000D80102EE100AB8EEC22AB0EE421A3748F5
:102DF000B0F9F00002EE100AB8EEC22AF0EE420A74
:102E00003248B0F9080002EE100AB8EEC22AB0EE5D
:102E1000420A07F0E3FC3DE0DFED2A1A9FED291A94
:102E2000DFED280A9FED270A07F0D8FC9FED251A51
:102E3000DFED280A9FED230A00F02EFF2348B0F9AA
:102E4000C00202EE100AB8EEC22AF0EE421A1F4883
:102E5000B0F9D80102EE100AB8EEC22AB0EE421A5A
:102E60001A48B0F9F00002EE100AB8EEC22AF0EEED
:102E7000420A1648B0F9080002EE100AB8EEC22A5B
:102E8000B0EE420A07F0AAFC0D488069B0F5827FD7
:102E900000D201E000BF2CE600BF00F0F1FDDFED45
:102EA000091A9FED081ADFED070A9FED060A07F0E1
:102EB00095FC07F06FFC05F08BFEBDEC048B70BD3C
:102EC000E4000020000000000000C8434001002092
:102ED000000048440000FA4310B53320044908704C
:102EE0004FF47A730122034803F032FF10BD000053
:102EF00097000020E00A002010B535200449087032
:102F00004FF47A730122034803F022FF10BD000042
:102F100097000020E00A002010B534200449087012
:102F20004FF47A730122034803F012FF10BD000032
:102F300097000020E00A002010B5382004490870EE
:102F40004FF47A730122034803F002FF10BD000022
:102F500097000020E00A002010B52DED028B9FEDB8
:102F6000FC0AF0EE408A9FEDFB0AB0EE408ADFEDEE
:102F7000F91A9FEDF81ADFEDF70A9FEDF60A07F050
:102F80002DFC05F025FE00BF00BFF348008800F4CB
:102F900000400028F9D000F0CBFE70BB9FEDED1A89
:102FA000DFEDEE0A9FEDEB0A00F076FEEC48B0F99B
:102FB000C00202EE100AB8EEC22AF0EE421AE84849
:102FC000B0F9D80102EE100AB8EEC22AB0EE421AE9
:102FD000E348B0F9F00002EE100AB8EEC22AF0EEB3
:102FE000420ADF48B0F9080002EE100AB8EEC22A21
:102FF000B0EE420A07F0F2FBFEE3FFE7D9480068B3
:1030000008B9012000E00020D6490860D248806954
:1030100040F2DC51884200D2EEE3CF488069B0F53F
:103020007A6F56D9D04890ED050AB0EE408A9FEDF0
:10303000CF0AB4EEC08AF1EE10FA0ADD9FEDCC0A99
:10304000B4EEC08AF1EE10FA03D29FEDCA0AF0EE98
:10305000408A9FEDC60AB4EEC08AF1EE10FA08D29B
:10306000B5EEC08AF1EE10FA03DD9FEDC30AF0EE73
:10307000408ABDEEE80A10EE100A02B200210846AE
:1030800000F01CFDB648B0F9C00202EE100AB8EE1E
:10309000C22AF0EE421AB248B0F9D80102EE100A84
:1030A000B8EEC22AB0EE421AAD48B0F9F00002EE16
:1030B000100AB8EEC22AF0EE420AA948B0F9080098
:1030C00002EE100AB8EEC22AB0EE420A07F086FB02
:1030D0001FE2A14890ED070AB8EE400AA748D0EDDC
:1030E000000AB2EE041A70EEC10AB4EEE00AF1EE84
:1030F00010FA2ED29FED9F1ADFED960A9FED950AEA
:1031000000F0CAFD9648B0F9C00202EE100AB8EE0F
:10311000C22AF0EE421A9248B0F9D80102EE100A23
:10312000B8EEC22AB0EE421A8D48B0F9F00002EEB5
:10313000100AB8EEC22AF0EE420A8948B0F9080037
:1031400002EE100AB8EEC22AB0EE420A07F046FBC1
:10315000DFE1814890ED070AB8EE400A8748D0EDDC
:10316000000AB2EE041A70EE810AB4EEE00AF1EE43
:1031700010FA38DD9FED801ADFED760A9FED750AB3
:1031800000F08AFD7648B0F9C00202EE100AB8EEEF
:10319000C22AF0EE421A7248B0F9D80102EE100AC3
:1031A000B8EEC22AB0EE421A6D48B0F9F00002EE55
:1031B000100AB8EEC22AF0EE420A6948B0F90800D7
:1031C00002EE100AB8EEC22AB0EE420A07F006FB81
:1031D000DFED6B1A9FED6A1ADFED690A9FED680A51
:1031E00007F0FCFAF6E35C48806940F6B8318842A3
:1031F0002ED99FED581ADFED590A9FED560A00F0BF
:103200004BFD5748B0F9C00202EE100AB8EEC22AD0
:10321000F0EE421A5248B0F9D80102EE100AB8EEA8
:10322000C22AB0EE421A4E48B0F9F00002EE100A7F
:10323000B8EEC22AF0EE420A4948B0F9080002EEA0
:10324000100AB8EEC22AB0EE420A07F0C7FAC1E38C
:10325000414890ED060AB8EE400A4A48D0ED000A0F
:103260009FED491A70EE810AB4EEE00AF1EE10FA11
:103270002EDD9FED381ADFED450A9FED360A00F08E
:103280000BFD3748B0F9C00202EE100AB8EEC22AB0
:10329000F0EE421A3248B0F9D80102EE100AB8EE48
:1032A000C22AB0EE421A2E48B0F9F00002EE100A1F
:1032B000B8EEC22AF0EE420A2948B0F9080002EE40
:1032C000100AB8EEC22AB0EE420A07F087FA81E38C
:1032D000214890ED060AB8EE400A2A48D0ED000ACF
:1032E0009FED291A70EEC10AB4EEE00AF1EE10FA71
:1032F00050D29FED181ADFED260A9FED160A00F056
:10330000CBFC1748B0F9C00202EE100AB8EEC22A90
:10331000F0EE421A1248B0F9D80102EE100AB8EEE7
:10332000C22AB0EE421A0E48B0F9F00002EE100ABE
:10333000B8EEC22AF0EE420A0948B0F9080002EEDF
:10334000100AB8EEC22AB0EE420A07F047FA41E38B
:103350000000964300000000E400002000007A44D2
:1033600040010020A8824242E004002000003443D3
:1033700000008743000016C400001644040000202B
:103380000000C843080000200000C8420000FA43C3
:103390000000FAC3FE4890ED070AB8EE400AFD4867
:1033A000D0ED000AB1EE041A70EEC10AB4EEE00AE4
:1033B000F1EE10FA2ED21FED0A1A5FED1A0A1FED78
:1033C0001B0A00F069FCF448B0F9C00202EE100AD2
:1033D000B8EEC22AF0EE421AEF48B0F9D80102EE78
:1033E000100AB8EEC22AB0EE421AEB48B0F9F0006B
:1033F00002EE100AB8EEC22AF0EE420AE648B0F930
:10340000080002EE100AB8EEC22AB0EE420A07F037
:10341000E5F9DFE2DE4890ED070AB8EE400ADD4844
:10342000D0ED000AB1EE041A70EE810AB4EEE00AA3
:10343000F1EE10FA2EDD1FED2B1A5FED3A0A1FEDAB
:103440003B0A00F029FCD448B0F9C00202EE100A91
:10345000B8EEC22AF0EE421ACF48B0F9D80102EE17
:10346000100AB8EEC22AB0EE421ACB48B0F9F0000A
:1034700002EE100AB8EEC22AF0EE420AC648B0F9CF
:10348000080002EE100AB8EEC22AB0EE420A07F0B7
:10349000A5F99FE2BE4890ED060AB8EE400ABF4883
:1034A000D0ED000A9FEDBE1A70EE810AB4EEE00A7C
:1034B000F1EE10FA2EDD1FED591A5FED5B0A1FEDDC
:1034C0005B0A00F0E9FBB448B0F9C00202EE100A52
:1034D000B8EEC22AF0EE421AAF48B0F9D80102EEB7
:1034E000100AB8EEC22AB0EE421AAB48B0F9F000AA
:1034F00002EE100AB8EEC22AF0EE420AA648B0F96F
:10350000080002EE100AB8EEC22AB0EE420A07F036
:1035100065F95FE29E4890ED060AB8EE400A9F48C2
:10352000D0ED000A9FED9E1A70EEC10AB4EEE00ADB
:10353000F1EE10FA2ED21FED791ADFED9A0A1FED87
:103540007B0A00F0A9FB9448B0F9C00202EE100A11
:10355000B8EEC22AF0EE421A8F48B0F9D80102EE56
:10356000100AB8EEC22AB0EE421A8B48B0F9F00049
:1035700002EE100AB8EEC22AF0EE420A8648B0F90E
:10358000080002EE100AB8EEC22AB0EE420A07F0B6
:1035900025F91FE27E4890ED070AB8EE400A7D4803
:1035A000D0ED000AB0EE001A70EEC10AB4EEE00AE7
:1035B000F1EE10FA2ED29FED7C1A5FED9A0A1FED04
:1035C0009B0A00F069FB7448B0F9C00202EE100AD1
:1035D000B8EEC22AF0EE421A6F48B0F9D80102EEF6
:1035E000100AB8EEC22AB0EE421A6B48B0F9F000E9
:1035F00002EE100AB8EEC22AF0EE420A6648B0F9AE
:10360000080002EE100AB8EEC22AB0EE420A07F035
:10361000E5F8DFE15E4890ED070AB8EE400A5D4844
:10362000D0ED000AB0EE001A70EE810AB4EEE00AA6
:10363000F1EE10FA2EDD9FED5D1A5FEDBA0A1FED77
:10364000BB0A00F029FB5448B0F9C00202EE100A90
:10365000B8EEC22AF0EE421A4F48B0F9D80102EE95
:10366000100AB8EEC22AB0EE421A4B48B0F9F00088
:1036700002EE100AB8EEC22AF0EE420A4648B0F94D
:10368000080002EE100AB8EEC22AB0EE420A07F0B5
:10369000A5F89FE13E4890ED060AB8EE400A3F4883
:1036A000D0ED000AB3EE041A70EE810AB4EEE00A1F
:1036B000F1EE10FA2EDD1FEDD91ADFED3C0A1FEDF9
:1036C000DB0A00F0E9FA3448B0F9C00202EE100A51
:1036D000B8EEC22AF0EE421A2F48B0F9D80102EE35
:1036E000100AB8EEC22AB0EE421A2B48B0F9F00028
:1036F00002EE100AB8EEC22AF0EE420A2648B0F9ED
:10370000080002EE100AB8EEC22AB0EE420A07F034
:1037100065F85FE11E4890ED060AB8EE400A1F48C2
:10372000D0ED000AB3EE041A70EEC10AB4EEE00A5E
:10373000F1EE10FA3FD21FEDF91ADFED1B0A1FED73
:10374000FB0A00F0A9FA1448B0F9C00202EE100A10
:10375000B8EEC22AF0EE421A0F48B0F9D80102EED4
:10376000100AB8EEC22AB0EE421A0B48B0F9F000C7
:1037700002EE100AB8EEC22AF0EE420A0648B0F98C
:10378000080002EE100AB8EEC22AB0EE420A0FE0BC
:10379000E400002004000020400100200800002078
:1037A00000004842000096C3000048C300004843A0
:1037B00007F014F80EE18B4890ED060AB8EE400AC7
:1037C0008948D0ED000AB2EE041A70EE810AB4EE18
:1037D000E00AF1EE10FA30DD9FED841ADFED840A85
:1037E0009FED820A00F058FA8248B0F9C00202EE5A
:1037F000100AB8EEC22A00E0EDE0F0EE421A7D4871
:10380000B0F9D80102EE100AB8EEC22AB0EE421AA0
:103810007848B0F9F00002EE100AB8EEC22AF0EED5
:10382000420A7448B0F9080002EE100AB8EEC22A43
:10383000B0EE420A06F0D2FFCCE06A4890ED060AEC
:10384000B8EE400A6848D0ED000AB2EE041A70EEF5
:10385000C10AB4EEE00AF1EE10FA2ED29FED631A1F
:10386000DFED650A9FED610A00F016FA6148B0F9D4
:10387000C00202EE100AB8EEC22AF0EE421A5D480B
:10388000B0F9D80102EE100AB8EEC22AB0EE421A20
:103890005848B0F9F00002EE100AB8EEC22AF0EE75
:1038A000420A5448B0F9080002EE100AB8EEC22AE3
:1038B000B0EE420A06F092FF8CE04A4890ED070A0B
:1038C000B8EE400A4D48D0ED000AB7EE001A70EE8F
:1038D000C10AB4EEE00AF1EE10FA2ED29FED461ABC
:1038E000DFED420A9FED410A00F0D6F94148B0F9F8
:1038F000C00202EE100AB8EEC22AF0EE421A3D48AB
:10390000B0F9D80102EE100AB8EEC22AB0EE421A9F
:103910003848B0F9F00002EE100AB8EEC22AF0EE14
:10392000420A3448B0F9080002EE100AB8EEC22A82
:10393000B0EE420A06F052FF4CE02A4890ED070A2A
:10394000B8EE400A2D48D0ED000AB7EE001A70EE2E
:10395000810AB4EEE00AF1EE10FA2EDD9FED241A92
:10396000DFED220A9FED210A00F096F92148B0F917
:10397000C00202EE100AB8EEC22AF0EE421A1D484A
:10398000B0F9D80102EE100AB8EEC22AB0EE421A1F
:103990001848B0F9F00002EE100AB8EEC22AF0EEB4
:1039A000420A1448B0F9080002EE100AB8EEC22A22
:1039B000B0EE420A06F012FF0CE0DFED0C1A9FEDAC
:1039C0000B1ADFED0A0A9FED090A06F007FF06F061
:1039D000BFFE02E000BFFFF7D7BA00BFBDEC028B0D
:1039E00010BD0000E40000200800002000000000DE
:1039F0000000C842400100200000C8C204000020AE
:103A000010B53620044908704FF47A730122034838
:103A100003F09EF910BD000097000020E00A00208E
:103A200010B53220044908704FF47A73012203481C
:103A300003F08EF910BD000097000020E00A00207E
:103A400010B53120044908704FF47A7301220348FD
:103A500003F07EF910BD000097000020E00A00206E
:103A600010B53720044908704FF47A7301220348D7
:103A700003F06EF910BD000097000020E00A00205E
:103A800010B511E00A48006800B10EE007E09FEDB4
:103A9000091ADFED090A9FED070A00F0FDF8044856
:103AA00000680028F3D000E0ECE700BF10BD000084
:103AB0000802414200000000000096432DE9F04159
:103AC0002DED0E8B074688461446714890ED040A8A
:103AD00010EE101A0846FCF77BFD41EC1E0BB0EE11
:103AE0004E0AF0EE6E0A07F03BFDB0EE40CAF0EE73
:103AF00060CA4046FCF72FFD41EC1D0B53EC1C2B1C
:103B0000FCF748FC41EC1A0B614890ED040A10EEFA
:103B1000101A0846FCF75CFD41EC1E0BB0EE4E0A95
:103B2000F0EE6E0A07F0ACFCB0EE40CAF0EE60CAF0
:103B30003846FCF710FD41EC1D0B53EC1C2BFCF739
:103B400029FC41EC1B0B53EC1A2BFCF77CFB41ECE2
:103B5000190BFCF71EFD05B24D4890ED040A10EE5E
:103B6000101A0846FCF734FD41EC1E0BB0EE4E0A6D
:103B7000F0EE6E0A07F084FCB0EE40CAF0EE60CAC8
:103B80004046FCF7E8FC41EC1D0B53EC1C2BFCF70A
:103B900001FC41EC1A0B3E4890ED040A10EE101A9D
:103BA0000846FCF715FD41EC1E0BB0EE4E0AF0EE98
:103BB0006E0A07F0D5FCB0EE40CAF0EE60CA78425B
:103BC000FCF7C9FC41EC1D0B53EC1C2BFCF7E2FB92
:103BD00041EC1B0B53EC1A2BFCF735FB41EC190B9A
:103BE000FCF7D7FC06B208EE104AA81900EE100A3E
:103BF000B8EEC00AF8EEC80AB7EE001A00EE810A65
:103C0000BDEEC00A10EE100A00B222490881A81BBE
:103C100000EE100AB8EEC00AF8EEC80AB7EE001AB5
:103C200000EE810ABDEEC00A10EE100A01B219487A
:103C3000A0F8F0106842801B00EE100AB8EEC00A2F
:103C4000F8EEC80AB7EE001A00EE810ABDEEC00A0F
:103C500010EE100A01B20F48A0F8D81168423044A3
:103C600000EE100AB8EEC00AF8EEC80AB7EE001A65
:103C700000EE810ABDEEC00A10EE100A01B205483E
:103C8000A0F8C01205F066F9BDEC0E8BBDE8F0811E
:103C9000E00400204001002010B52DED048BB0EEB3
:103CA000408AF0EE608AB0EE419A38EE280AF7EECC
:103CB000000A09EE200ABDEEC00A10EE100A00B29A
:103CC0001A49088138EE680AF7EE000A09EE200A60
:103CD000BDEEC00A10EE100A01B21448A0F8F010B0
:103CE000B1EE480A30EE680AF7EE000A09EE200A43
:103CF000BDEEC00A10EE100A01B20C48A0F8D811AF
:103D0000B1EE480A30EE280AF7EE000A09EE200A62
:103D1000BDEEC00A10EE100A01B20448A0F8C012AD
:103D200005F018F9BDEC048B10BD00004001002027
:103D30001CB53748008800F4004080B134488179D0
:103D4000407941EA0020334908603148017AC0795E
:103D500041EA00203049086000202D4908802D48A4
:103D60000068F0280DD32B480068B0F5967F08D87E
:103D700029480068B0F57A6F03D8274800680A28F8
:103D800004D20020224981F820001CBD214800688F
:103D90001F49C861204800688861012081F820001F
:103DA0001EA018210B46C822CDE900104FF4077160
:103DB0001E2004F04BFC18200090154804234FF4FB
:103DC0000771C2699F2004F0F7FB17A018210B466A
:103DD000C822CDE900104FF411711E2004F036FC0A
:103DE000182000900A4804234FF4117182699F2023
:103DF00004F0E2FB0FA018210B46C822CDE9001009
:103E00004FF41B711E2004F021FC0120BDE70000CF
:103E1000E4000020380000203C0000205261646172
:103E2000725F5261643A000052616461725F4C6576
:103E30006E3A000052616461722100007CB5304826
:103E4000008800F4004060B12D48C189808941EAB2
:103E500000242B48418A008A41EA00250020284995
:103E600008800A2C06D340F27620844202D8B5F5A9
:103E7000FA7F04D20020224981F834007CBD20481A
:103E80000463C56201201E4981F834001DA0182179
:103E90000B46C822CDE900104FF40771E62004F06C
:103EA000D5FB18200090164804234FF40771026BCD
:103EB00040F2671004F080FB15A018210B46C822C1
:103EC000CDE900104FF41171E62004F0BFFB18207B
:103ED00000900B4804234FF41171C26A40F267103E
:103EE00004F06AFB0DA018210B46C822CDE9001092
:103EF0004FF41B71E62004F0A9FB0120BEE700008F
:103F000008010020566973696F6E2E583A00000050
:103F1000566973696F6E2E4465703A00566965770D
:103F2000210000005A4890ED050A80ED100A59481A
:103F300080795849C97940EA012000EE100AB8EEAC
:103F4000C00ADFED550A80EE201A9FED540A21EEDB
:103F5000000A4F4880ED050A90ED050ADFED500A92
:103F600020EE200ADFED4D0A80EE201A80ED041AC3
:103F700008E0474890ED050ADFED4A0A30EE200AD6
:103F800080ED050A424890ED050AB5EEC00AF1EE53
:103F900010FAEED308E03E4890ED050ADFED410A45
:103FA00030EE600A80ED050A394890ED050ADFED34
:103FB0003D0AB4EEE00AF1EE10FAECDC08E0344819
:103FC00090ED040ADFED380A30EE200A80ED040A95
:103FD0002F4890ED040AB5EEC00AF1EE10FAEED3C8
:103FE00008E02B4890ED040ADFED2F0A30EE600A5E
:103FF00080ED040A264890ED040ADFED2B0AB4EEAA
:10400000E00AF1EE10FAECDC002028490880204894
:1040100090ED050AD0ED100A30EE600A80ED060A38
:1040200090ED060ADFED220AB4EEE00AF1EE10FA96
:1040300008DD90ED060ADFED1B0A30EE600A80ED28
:10404000060A11E0124890ED060ADFED1A0AB4EEF6
:10405000E00AF1EE10FA07D290ED060ADFED110A40
:1040600030EE200A80ED060A1348006808B90120E6
:1040700000E00020104908601048D0F8A40208B9F8
:10408000012000E000200C49091F08607047000073
:10409000E0040020F0080020000000470000344346
:1040A000DB0F49400000B443DB0FC9408E00002005
:1040B00000009643000096C3A8824242008042421C
:1040C00010B52DED0C8B84B05E48008800F40040E4
:1040D00000287DD0FFF726FF05F0D0FC5A4890ED70
:1040E000040A10EE101A0846FCF772FA41EC1C0B99
:1040F000B0EE4C0AF0EE6C0A07F0C2F9B0EE40BA2E
:10410000F0EE60BA51EC1B0BFCF7A6FA00904E489B
:1041100090ED040A10EE101A0846FCF759FA41EC2B
:104120001D0BB0EE4D0AF0EE6D0A07F019FAB0EE75
:1041300040CAF0EE60CA51EC1C0B81F00041FCF764
:104140008BFA01909DED010AB1EE400A8DED020A55
:104150009DED000A8DED030A3B4890ED060A9FEDA8
:104160003B1AC0EE010A9FED3A0A20EE808A90EDDC
:10417000060A9FED361AC0EE010A9FED360A60EE80
:10418000808A354890ED000A30EE080A80ED000A7A
:10419000324890ED000A30EE280A80ED000A2A48E5
:1041A000B0F9280000EE100AB8EEC00A30EE08AAF6
:1041B0002548B0F92A0000EE100AB8EEC00A70EEE9
:1041C00068AA9FED270A8AEE009A9FED260A00E072
:1041D00033E0CAEE809A9DED000A20EE090ADDED7B
:1041E000010A09EEA00A1848D0ED000A30EE200AB4
:1041F00080ED000A9DED020A20EE090ADDED030ABA
:1042000009EEA00AD0ED010A30EE200A80ED010A85
:10421000D0E90C300C49B1F92810CA17591850418F
:10422000094AC2E90C101046D0E90E41B0F92A0043
:10423000C31720185941C2E90E0104B0BDEC0C8B24
:1042400010BD00008E000020E00400200000344378
:1042500000F8724600E4734640000020440000204D
:1042600000E13647007E3A47024692F820000128D6
:1042700003D092F82000022806D110684069084354
:104280001368586100207047506A40F480205062E3
:104290000120F8E770B504460D46A86800B900E0B3
:1042A00000BF94F82000012803D094F820000228D1
:1042B0007FD12068806800F0806050B920688068F5
:1042C00000F0006028B92068806800F08050002865
:1042D00069D020688068C0F30161012088401860BF
:1042E000A86850B92E88E86840EA4656206800F56C
:1042F000C07000EB011006600BE0D5E9016040EAF8
:10430000C600EE683043266806F5C07606EB011657
:1043100030602E69206800F5C07000EB0110466027
:10432000287D01280DD1206800F5C07000EB011038
:10433000406840F48076206800F5C07000EB011002
:104340004660D0790006967940EA0640567940EA00
:10435000062610790643206800F5C07000EB0110B6
:10436000C660D0780006967840EA0640567840EA63
:10437000062016783043266806F5C07606EB01164F
:10438000B060206800F5C07000EB0110006840F0DC
:104390000106206800F5C07000EB011006600020E7
:1043A00070BD06E0FFE7606A40F400106062012023
:1043B000F6E7606A40F4802060620120F0E70000C8
:1043C00070B504460A460023216894F820000128AD
:1043D00003D094F8200002287CD1414901F50071F6
:1043E000086840F001000860086820F47C5008600C
:1043F0000868556A40EA05200860157D012000FA2A
:1044000005F3C8699843C861A1F50071D069C8B9BE
:10441000D1F80C029843C1F80C02908880B29589BB
:1044200040EA054501F51070566940F8365010888D
:1044300080B2158940EA054501F51070566900EB18
:10444000C6004560D069012819D1D1F80C02184383
:10445000C1F80C02908880B2158840EA054501F544
:104460001070566940F83650908980B2158940EA3C
:10447000054501F51070566900EBC600456090696E
:1044800028B9D1F804029843C1F8040204E0D1F835
:1044900004021843C1F80402106928B9D1F81402C3
:1044A0009843C1F8140204E0D1F814021843C1F88B
:1044B0001402106A012804D1D1F81C021843C1F873
:1044C0001C02D1F8000220F00100C1F80002002017
:1044D00070BDFFE7606A40F4802060620120F7E76A
:1044E00000640040704730B5044694F8200001286D
:1044F00003D094F8200002287DD151B92068C0680B
:1045000000F0030090B9606A40F40010606201207E
:1045100030BD01290AD12068006900F0030028B9E4
:10452000606A40F4001060620120F1E7206800F545
:10453000D87000EB0110006800F0040090609068F3
:1045400040B9206800F5D87000EB01100068400DFC
:10455000106007E0206800F5D87000EB01100068DB
:10456000C0085060206800F5D87000EB01100068AA
:1045700000F002004008D060206800F5D87000EB21
:104580000110406800F00F001061206800F5D8703D
:1045900000EB0110406800F47F40000A9061206841
:1045A00000F5D87000EB01104068000C50612068E5
:1045B00000F5D87000EB011080681870206800F5D5
:1045C000D87000EB0110806800F47F40000A58703A
:1045D000206800F5D87000EB0110806800F47F00BF
:1045E000000C9870206800F5D87000EB011080680E
:1045F000000ED87000E034E0206800F5D87000EBC1
:104600000110C0681871206800F5D87000EB011027
:10461000C06800F47F40000A5871206800F5D87027
:1046200000EB0110C06800F47F00000C9871206856
:1046300000F5D87000EB0110C068000ED87131B9D8
:104640002068C06840F020002568E86007E0012984
:1046500005D12068006940F020002568286100200D
:1046600056E7606A40F480206062012050E72DE93F
:10467000F05F04460025206846692068D0F8049061
:10468000206887682068D0F80CA02068D0F810B0A7
:104690002068D0F8188006F00100002855D007F0F7
:1046A0000100C0B101202168886007F0020018B144
:1046B000204600F059FA0EE007F0040010B145F46E
:1046C000006508E007F0080010B145F4805502E0ED
:1046D000204600F048FA07F48070C8B14FF48070AB
:1046E0002168886007F4007018B1204600F03EFA97
:1046F0000EE007F4806010B145F4005508E007F4BF
:10470000006010B145F4804502E0204600F02DFA2B
:1047100007F48030C8B14FF480302168886007F416
:10472000003018B1204600F023FA0EE007F4802094
:1047300010B145F4004508E007F4002010B145F43D
:10474000803502E0204600F012FA06F0080038B189
:104750000AF0100020B145F4007510202168C860EF
:1047600006F0040040B10AF0080028B108202168D2
:10477000C860204600F0AAF906F0020038B12068AF
:10478000C06800F0030010B1204600F0A1F906F067
:10479000400038B10BF0100020B145F480651020C6
:1047A0002168086106F0200040B10BF0080028B134
:1047B000082021680861204600F0A2F906F01000E8
:1047C00038B12068006900F0030010B1204600F005
:1047D00098F906F4003040B109F0100028B110201B
:1047E00021684860204600F08DF906F4803040B121
:1047F00009F0080028B1082021684860204600F030
:10480000B8F906F4004088B309F0040078B306F460
:10481000807020B108F0010008B145F0010506F4F0
:10482000007020B108F0020008B145F0020506F45E
:10483000806020B108F0040008B145F0040506F4DA
:104840000060A0B108F0700088B108F07000402846
:1048500017D006DC10280BD020280CD0302819D116
:104860000CE0502810D0602814D110E01DE019E0B1
:1048700045F008050FE045F010050CE045F0200577
:1048800009E045F0400506E045F0800503E045F409
:10489000807500E000BF00BF2068806920F07000D4
:1048A000216888610420216848602DB1606A28432E
:1048B00060622046FFF716FEBDE8F09F70B5044623
:1048C00000250CB9012070BD94F8200010B92046D5
:1048D00000F0B0F82068006820F00200216808604D
:1048E00000F0C6FA05460DE000F0C2FA401B0A28A7
:1048F00008D9606A40F400306062052084F8200026
:104900000120E0E72068406800F002000028EBD1B9
:104910002068006840F001002168086000F0A8FAF3
:1049200005460DE000F0A4FA401B0A2808D9606A89
:1049300040F400306062052084F820000120C2E7C6
:104940002068406800F001000028EBD0207E01289C
:1049500006D12068006840F080002168086005E00A
:104960002068006820F0800021680860607E0128CF
:1049700006D12068006840F040002168086005E02A
:104980002068006820F0400021680860A07E0128AF
:1049900006D12068006840F020002168086005E02A
:1049A0002068006820F0200021680860E07E01286F
:1049B00006D12068006820F010002168086005E03A
:1049C0002068006840F0100021680860207F0128FE
:1049D00006D12068006840F008002168086005E002
:1049E0002068006820F0080021680860607F0128C6
:1049F00006D12068006840F004002168086005E0E6
:104A00002068006820F0040021680860D4E90201F1
:104A1000084321690843616908436168491E0843E6
:104A20002168C86100206062012084F82000002015
:104A300049E7000010B586B00446142101A8FBF731
:104A4000F7FB1F492068884238D100BF0020009042
:104A50001C48006840F000701A4908600846006869
:104A600000F00070009000BF00BF00BF0020009069
:104A700014481038006840F00100124910390860ED
:104A80000846006800F00100009000BF00BF4FF42E
:104A9000C050019002200290002003900320049057
:104AA0000920059001A9084800F0DCF80022012146
:104AB000142000F068FA142000F058FA06B010BD77
:104AC000006400404038024000000240704700008F
:104AD00010B5044607492068884209D1064B074AA9
:104AE00000212046FFF7FFFC03490448FBF7FAFECC
:104AF00010BD00000064004078000020A0050020E8
:104B000070477047704770B50446002594F8200040
:104B1000012822D1022084F820002068006820F0BB
:104B200001002168086000F0A3F905460DE000F0DF
:104B30009FF9401B0A2808D9606A40F4003060627F
:104B4000052084F82000012070BD2068406800F036
:104B500001000028EBD16062F6E7606A40F40020B3
:104B600060620120F0E770477047704770477047F8
:104B700070477047014691F83500022803D0802025
:104B8000486501207047052081F8350008680068F5
:104B900020F001000A6810600020F3E700B587B03C
:104BA0002A48006808B107B000BD01202749086005
:104BB00000BF002001902648006840F00100244911
:104BC00008600846006800F00100019000BF00BFC7
:104BD0008814029002200390012004900320059085
:104BE0000C20069002A91B4800F03CF84FF680709C
:104BF00002900220039001200490032005900C20D5
:104C0000069002A9144800F02DF84CF2337002907F
:104C10000220039001200490032005900C200690B0
:104C200002A90E4800F01EF84FF4805002900220B6
:104C3000039001200490032005900C20069002A907
:104C4000074800F00FF800BFADE700008400002027
:104C5000383802400014024000100240000C0240AC
:104C600000180240F8B502460B460025002400203B
:104C70000021DCE0012606FA01F51E6806EA0504BB
:104C8000AC4273D15E68022E02D05E68122E13D140
:104C9000CF0802F1200656F827004E07F70E0F2620
:104CA000BE40B0434F07FF0E1E69BE403043CF08E1
:104CB00002F1200646F8270010684F000326BE4088
:104CC000B0431E7906F003064F00BE40304310602B
:104CD0005E68012E08D05E68022E05D05E68112E37
:104CE00002D05E68122E13D190684F000326BE409A
:104CF000B0434F00DE68BE403043906050680126EC
:104D00008E40B0431E79C6F300168E40304350608B
:104D1000D0684F000326BE40B0434F009E68BE409F
:104D20003043D0605E6806F08056B6F1805F7DD17A
:104D300000BF00260096404E366846F480463E4F3F
:104D40003E603E46366806F48046009600BF00BFCF
:104D50003A4E8F0856F827008E07370F0F26BE40B1
:104D6000B043374EB24202D1002624E05EE0354E19
:104D7000B24201D101261EE0334EB24201D10226D9
:104D800019E0324EB24201D1032614E0304EB24255
:104D900001D104260FE02F4EB24201D105260AE0D0
:104DA0002D4EB24201D1062605E02C4EB24201D171
:104DB000072600E008268F073F0FBE4030431F4EF6
:104DC0008F0846F82700264E3068A0435E6806F438
:104DD0008036B6F5803F00D12043214E3060361D2D
:104DE0003068A0435E6806F40036B6F5003F00D197
:104DF00020431B4E361D3060361D3068A0435E6870
:104E000006F48016B6F5801F00D12043144E0836F4
:104E10003060361D3068A0435E6806F40016B6F5B3
:104E2000001F00D120430E4E0C363060491C102963
:104E3000FFF420AFF8BD00004438024008380140BC
:104E4000000002400004024000080240000C024042
:104E5000001002400014024000180240001C0240F2
:104E6000003C01400AB1816101E00B04836170479D
:104E7000014800687047000098000020034800685F
:104E800003490978084401490860704798000020E8
:104E9000A000002010B50D48006840F400700B49D8
:104EA00008600846006840F48060086008460068B2
:104EB00040F480700860032000F0A4F8002000F0A7
:104EC00007F800F02BF8002010BD0000003C024065
:104ED00070B504460E4800784FF47A71B1FBF0F0DB
:104EE0000C490968B1FBF0F5284600F046FC08B112
:104EF000012070BD102C07D200222146501E00F068
:104F000042F80548046001E00120F2E70020F0E7E4
:104F1000A0000020A40000209C00002008B500BFD5
:104F2000002000901048006840F480400E4908605E
:104F30000846006800F48040009000BF00BF00BF3A
:104F400000200090081F006840F08050091F086092
:104F50000846006800F08050009000BF00BF0520A8
:104F600000F050F808BD00004438024000BF00F0D7
:104F70001F02012191404209920002F1E022C2F891
:104F8000001100BF70472DE9F05F80460D461646C0
:104F9000002704F027FC074639462A46334601F02D
:104FA0000700C0F1070ABAF1040F02D94FF0040A52
:104FB00001E0C0F1070AD14600F1040ABAF1070F77
:104FC00002D24FF0000A01E0A0F1030AD4464FF0EC
:104FD000010A0AFA09FAAAF1010A0AEA020A0AFA15
:104FE0000CFA4FF0010B0BFA0CFBABF1010B0BEAC7
:104FF000030B4AEA0B042146404604F0FBFBBDE8E4
:10500000F09F000000BF00F00702064B19684FF642
:10501000FF031940044B0B4343EA0221014B196083
:1050200000BF70470CED00E00000FA0570B50446C3
:105030000D460CB9012070BD5848006800F00F0003
:10504000A84209D255490D700846006800F00F00CB
:10505000A84201D00120EEE7207800F002000228EB
:105060001DD1207800F00400042805D14C480068C8
:1050700040F4E0504A490860207800F00800082811
:1050800005D14748006840F46040454908604448FD
:10509000006820F0F000A1680843414908602078CA
:1050A00000F00100A8B36068012807D13C48083827
:1050B0000068C0F34040B8B90120BCE7606802282E
:1050C00002D06068032807D1354808380068C0F36B
:1050D000406048B90120AEE7314808380068C0F3A5
:1050E000400008B90120A6E72D48006820F0030021
:1050F000616808432A490860FFF7BAFE064609E0DE
:10510000FFF7B6FE801B41F28831884202D90320A6
:1051100091E707E02248006800F00C006168B0EBFE
:10512000810FEDD11D48006800F00F00A84209D999
:105130001A490D700846006800F00F00A84201D01F
:10514000012078E7207800F00400042807D11448F3
:10515000006820F4E050E1680843114908602078B5
:1051600000F00800082808D10D48006820F46040CD
:10517000216940EAC1000A49086000F03DF8084989
:105180000968C1F30311074A515CC8400649086029
:105190000020FFF79DFE00204DE70000003C02408C
:1051A00008380240C0180108A40000200148006827
:1051B00070470000A400002000B5FFF7F7FF044986
:1051C0000968C1F38221034A515CC84000BD000058
:1051D00008380240D018010800B5FFF7E7FF04497E
:1051E0000968C1F34231034A515CC84000BD000068
:1051F00008380240D01801082DE9F04700240025A6
:105200000026A1462548006800F00C0020B10428C3
:1052100005D008283AD105E0DFF8849039E0DFF8BE
:10522000849036E01D48001F006800F03F041B48D2
:10523000001F006800F4800078B11A481749091F60
:105240000968C1F38811A0FB0170014622460023C2
:105250003846FAF7B5FF05460EE011480F49091F19
:105260000968C1F38811A0FB0170014622460023A2
:105270003846FAF7A5FF05460848001F0068C0F346
:105280000140401C4600B5FBF6F902E0DFF8109043
:1052900000BF00BF4846BDE8F08700000838024064
:1052A0000024F40000127A00F8B504460CB901207D
:1052B000F8BD207800F00100002874D0F94800689B
:1052C00000F00C0004280DD0F648006800F00C0037
:1052D000082813D1F348001F006800F48000B0F5DF
:1052E000800F0BD1EF4808380068C0F34040002819
:1052F00059D06068002856D10120D9E700BF606806
:10530000B0F5803F08D1E7480838006840F48030A5
:10531000E449083908601EE06068B0F5A02F0DD19F
:10532000E0480838006840F48020DE490839086009
:105330000846006840F4803008600CE0D94808381E
:10534000006820F48030D7490839086008460068B2
:1053500020F48020086000BF606890B1FFF788FDEE
:10536000054606E0FFF784FD401B642801D90320B1
:105370009EE7CC4808380068C0F340400028F1D0D0
:1053800011E0FFF775FD054606E0FFF771FD401BD4
:10539000642801D903208BE7C24808380068C0F3AD
:1053A00040400028F1D1207800F0020002285FD1AF
:1053B000BC48006800F00C0058B1BA48006800F022
:1053C0000C0008281CD1B748001F006800F48000BA
:1053D000B0B9B44808380068C0F3400020B1E068B4
:1053E000012801D0012063E7AE480838006820F0AA
:1053F000F800216940EAC100AA490839086037E08D
:10540000E06800B30120A8490860FFF731FD0546B8
:1054100006E0FFF72DFD401B022801D9032047E7D6
:10542000A04808380068C0F340000028F1D09D482B
:105430000838006820F0F800216940EAC100994965
:105440000839086014E0002097490860FFF710FD54
:10545000054606E0FFF70CFD401B022801D903209A
:1054600026E7904808380068C0F340000028F1D1D2
:10547000207800F0080008282CD16069A8B101202C
:105480008A490860FFF7F4FC054606E0FFF7F0FCE8
:10549000401B022801D903200AE782486C300068CB
:1054A000C0F340000028F1D014E000207F490860DC
:1054B000FFF7DEFC054606E0FFF7DAFC401B02289A
:1054C00001D90320F4E677486C300068C0F340004F
:1054D0000028F1D1207800F00400042870D10026C3
:1054E00070483830006800F0805090B900BF00204C
:1054F00000906C483830006840F08050694938317D
:1055000008600846006800F08050009000BF00BFAF
:1055100001266748006800F48070B0B964480068EC
:1055200040F4807062490860FFF7A2FC054606E07F
:10553000FFF79EFC401B022801D90320B8E65C4817
:10554000006800F480700028F2D000BFA068012835
:1055500008D154486830006840F001005149683172
:1055600008601DE0A06805280DD14E48683000682D
:1055700040F004004B49683108600846006840F07C
:10558000010008600CE047486830006820F0010026
:105590004449683108600846006820F0040008604B
:1055A00000BFA068A8B1FFF763FC054609E0FFF75C
:1055B0005FFC401B41F28831884202D9032077E624
:1055C00026E0384868300068C0F340000028EED07C
:1055D00013E0FFF74DFC054608E0FFF749FC401BD0
:1055E00041F28831884201D9032061E62D486830B4
:1055F0000068C0F340000028EFD1012E07D12948F0
:105600003830006820F0805026493831086000BFEB
:10561000A069B8B32348006800F00C0008285ED0E9
:10562000A069022846D100201F490866FFF720FC28
:10563000054606E0FFF71CFC401B022801D90320A9
:1056400036E6184808380068C0F340600028F1D1F9
:10565000D4E907010843616A40EA81110122A06A86
:10566000C2EB500041EA00412C20005D41EA00609D
:105670000C49091F086001200B490866FFF7F8FB79
:10568000054607E02DE0FFF7F3FB401B022801D998
:1056900003200DE6034808380068C0F34060002886
:1056A000F1D01EE00838024000004742800E474219
:1056B0000070004000200C490866FFF7D9FB054642
:1056C00006E0FFF7D5FB401B022801D90320EFE5D8
:1056D00006480068C0F340600028F2D101E00120D4
:1056E000E6E50020E4E50000000047420038024003
:1056F00070B504460E4615460CB9012070BD94F8ED
:10570000490028B9002084F84800204600F01CF821
:1057100004F108012068FBF7EFFA3146A26820681F
:10572000FBF718FB2946236BD4E90102FBF7C0FA0B
:10573000A168206850F8210040F00100A2682168AB
:1057400041F822000020D9E710B50446FFF726FAF9
:1057500010BD042808D14FF0E021096941F004018F
:105760004FF0E022116107E04FF0E021096921F0DC
:1057700004014FF0E0221161704770B504462546E0
:10578000681EB0F1807F01D301200FE0681E4FF04A
:10579000E02148610F214FF0FF3004F02BF800208A
:1057A0004FF0E021886107200861002070BD70473C
:1057B0007047024600BF92F83800012801D102204C
:1057C0007047012082F8380000BF022082F83900BB
:1057D0001068406820F070001368586010684068D6
:1057E0000B681843136858601068806820F08000C8
:1057F00013689860106880684B6818431368986055
:10580000012082F8390000BF002082F8380000BF74
:1058100000BFD5E710B504460CB9012010BD94F8BF
:10582000390028B9002084F83800204600F00CF830
:10583000022084F83900211D206805F0BDF8012000
:1058400084F839000020E9E710B586B00446142139
:1058500001A8FAF7EDFC3C49206888423FD100BF1F
:10586000002000903948006840F001003749086086
:105870000846006800F00100009000BF00BF00BFB4
:105880000020009031481438006840F001002F4992
:10589000143908600846006800F00100009000BF5D
:1058A00000BF881501900220029000200390049010
:1058B0000120059001A92648FFF7D4F90222002112
:1058C0001920FFF760FB1920FFF750FB032200218E
:1058D0001B20FFF758FB1B20FFF748FB32E01D4958
:1058E000206888421AD100BF002000901748001F8E
:1058F000006840F008001549091F08600846006864
:1059000000F00800009000BF00BF012211463220C5
:10591000FFF739FB3220FFF729FB13E00E4920681F
:1059200088420FD100BF002000900848006840F472
:105930008030064908600846006800F48030009016
:1059400000BF00BF06B010BD000001404438024057
:1059500000000240000C0040004001400146086881
:10596000C06840F001000A68D0600868006840F034
:1059700001000A681060002070472DE9F0410446DC
:105980000D46002600BF94F83800012802D10220FD
:10599000BDE8F081012084F8380000BF022084F8BF
:1059A00039002068866826F0770626F47F4620684E
:1059B0008660286850283BD00CDC202860D004DCAE
:1059C000002853D0102865D155E030285DD04028FC
:1059D00060D141E0602835D070280DD0B0F5805FEF
:1059E00003D0B0F5005F55D115E02068806820F045
:1059F0000700216888604EE0D5E902136A682068D4
:105A000005F05AF82068866826F0770646F0770693
:105A1000206886603FE0D5E902136A68206805F0D7
:105A20004BF82068806840F480402168886032E04C
:105A3000EA686968206805F035F95021206805F0AA
:105A400047F828E0EA686968206805F08DF9602168
:105A5000206805F03DF81EE0EA686968206805F0F6
:105A600021F94021206805F033F814E00021206876
:105A700005F02EF80FE01021206805F029F80AE063
:105A80002021206805F024F805E03021206805F089
:105A90001FF800E000BF00BF012084F8390000BFFC
:105AA000002084F8380000BF00BF71E72DE9F04105
:105AB00004460D464FF000080026002714B90120C7
:105AC000BDE8F08194F8390028B9002084F8380046
:105AD000204600F045F8022084F8390020688068EC
