:020000040800F2
:10000000A80F00209D010008457E0008FB4F000856
:10001000C57900088D080008A59C000800000000B4
:100020000000000000000000000000003590000803
:10003000AD0C000800000000DD800008C59000083D
:10004000B7010008B7010008B7010008B7010008B0
:10005000B7010008B7010008B7010008B7010008A0
:10006000B7010008B7010008B7010008B701000890
:10007000B7010008B7010008B7010008B701000880
:10008000B7010008B7010008B7010008B701000870
:10009000D5080008B7010008B7010008B70100083B
:1000A000B7010008F5910008B7010008E5910008C4
:1000B000B7010008B7010008B7010008B701000840
:1000C000B7010008B7010008B7010008B701000830
:1000D000B7010008059C0008219C00083D9C000811
:1000E000B7010008B7010008B7010008B701000810
:1000F000B7010008B7010008B7010008B701000800
:10010000B7010008B701000805920008B701000810
:10011000AD960008B7010008B7010008B701000854
:10012000B7010008B7010008B7010008B7010008CF
:10013000B7010008B7010008B7010008B7010008BF
:10014000B7010008B7010008B7010008B7010008AF
:10015000B7010008B7010008B7010008B70100089F
:10016000B7010008B7010008B7010008B70100088F
:10017000B7010008B7010008B7010008000000003F
:10018000B7010008B7010008DFF80CD000F046FB0B
:1001900000480047E9AD0008A80F00200648804746
:1001A00006480047FEE7FEE7FEE7FEE7FEE7FEE75C
:1001B000FEE7FEE7FEE7FEE78191000889010008FF
:1001C0002DE9F05F0546002092469B46884606468C
:1001D000814640241BE0284641464746224600F01F
:1001E00066FA53465A46C01A914110D31146184632
:1001F000224600F04DFA2D1A67EB01084F462246C1
:100200000120002100F044FA17EB00094E41201EA6
:10021000A4F10104DFDC484631462A464346BDE8E6
:10022000F09FD2B201E000F8012B491EFBD27047CB
:100230000022F6E710B513460A4604461946FFF7B2
:10024000F0FF204610BD2DE9FE4F804681EA0300F5
:10025000C00F0C46009021F0004123F00045B8EBA0
:100260000200A94105D24046214690461C460B4655
:10027000024623F00040104347D0270DC7F30A0081
:10028000C3F30A510290401A019040286BDAC3F37D
:10029000130040F4801B0098924620B10023D2EB5B
:1002A000030A63EB0B0B01985946C0F1400250461C
:1002B00000F0EEF906460D4650465946019A00F008
:1002C00006FA10EB08006141002487EA115284EA23
:1002D000E7731A4340D0009A62B3019A012A4FEAA9
:1002E000075215DC001B61EB02014FF0004202EAED
:1002F0000752CDE90042001C41F5801132462B46E1
:1003000000F03DFA03B0BDE8F08F40462146F9E722
:10031000001B61EB0201001C41F5801300185B41DA
:100320002018A2F5001747EB030140EAD570B61973
:100330006D4111E06D084FEA360645EAC0754FEA97
:100340000752001B61EB0201001C41F580114908B6
:100350004FEA30000019514132462B4603B0BDE848
:10036000F04F00F0FDB90098012240000023D0EBCF
:10037000020263EBE073009821464FEAE074B8EBA9
:10038000000061EB0401E9E783F000435BE781F0E3
:10039000004158E72DE9FE4F81EA030404F00044D0
:1003A00021F0004100944FF0000B23F0004350EA8D
:1003B00001045ED052EA03045BD0C3F30A54C1F3D4
:1003C0000A552C44A4F2F3340194A0FB0254C1F367
:1003D000130141F48011C3F3130343F4801301FBB1
:1003E000024400FB034E840A970A44EA815447EA18
:1003F0008357A4FB076802958D0A05FB07854FEA22
:10040000932C04FB0C542705029D4FEA065847EA3B
:100410001637B5EB08056EEB070C870E920E47EA10
:10042000811742EA8312A7FB0201B6EB0B0164EBD2
:1004300000042B0D43EA0C335E1844EB1C50DA46E3
:100440005146E7FB0201C5F313044FEA0B3343EABD
:1004500014534FEA0432019C43EA0603A4F10C044E
:100460000294009CCDE900B400F089F903B0BDE826
:10047000F08F00200146F9E72DE9F04D81EA0304F1
:1004800004F0004B21F0004514464FF0000A23F021
:10049000004150EA050220D054EA01021DD0C5F304
:1004A0000A570246C5F31303C1F31300C1F30A56FA
:1004B00040F4801543F48013A7EB0608101BD646C2
:1004C00008F2FD3873EB050002D308F1010801E0E2
:1004D00092185B41B8F1000F03DA00200146BDE835
:1004E000F08D00204FF48011064684460EE0171B65
:1004F00073EB050705D3121B63EB050306434CEAB8
:10050000010C49084FEA300092185B4150EA01079C
:10051000EDD152EA030012D082EA040083EA050119
:10052000084305D0101BAB4106D20122002306E090
:1005300000224FF0004302E06FF0010253101AEB6B
:1005400006004CEB085110EB0A0041EB0B01BDE833
:10055000F04D00F005B90EB5C10F80EAE070084417
:10056000CA07002140F233438DE80E000A460B46CD
:1005700000F005F903B000BD0EB540F23341029121
:100580000021CDE900110A460B4600F0F8F803B04F
:1005900000BD70B5C1F30A5201F000450024C1F35B
:1005A000130140F2FF3341F480119A4201DA002036
:1005B00070BD40F233439A42A2F2334203DC52420E
:1005C00000F075F800E090402C43F1D0404270BD3F
:1005D00000F0004230F000400AD0C10D01F560711A
:1005E000C0F3160042EA0151C208400711437047A8
:1005F000002001467047000030B5041E71F1000470
:1006000004DB4FF00044404264EB0101141E73F11F
:10061000000405DB1C464FF00043524263EB040329
:100620008B4208BF824230BD30B5041E71F1000418
:1006300004DB4FF00044404264EB0101141E73F1EF
:10064000000405DB1C464FF00043524263EB0403F9
:10065000994208BF904230BD01F0004330B421F010
:10066000004150EA010206D00A0DA2F56072C1F302
:100670001301002A02DC30BC00207047440F44EA1A
:10068000C104C100E01830BC00EBC25000F031B82A
:10069000202A04DB203A00FA02F100207047914042
:1006A000C2F1200320FA03F3194390407047202A37
:1006B00004DB203A21FA02F00021704721FA02F30C
:1006C000D040C2F120029140084319467047202AC9
:1006D00006DBCB17203A41FA02F043EAE07306E06A
:1006E00041FA02F3D040C2F120029140084319467A
:1006F00070470029A8BF7047401C490008BF20F080
:100700000100704710B4B0FA80FC00FA0CF050EA17
:10071000010404BF10BC704749B1CCF1200421FA98
:1007200004F411FA0CF118BF012121430843A3EB93
:100730000C01CB1D4FEA00614FEA102042BF0020A0
:1007400010BC704700EBC35010440029A4BF10BC7C
:100750007047401C490008BF20F0010010BC7047E2
:1007600010B5141E73F1000408DA401C41F10001B9
:1007700092185B411A4301D120F0010010BD2DE910
:10078000F04D92469B4611B1B1FA81F202E0B0FA07
:1007900080F220329046FFF77BFF04460F4640EA86
:1007A0000A0041EA0B0153465A46084313D011464A
:1007B00053EA010019D0C8F140025046FFF777FF15
:1007C00005460E46504659464246FFF761FF08432C
:1007D00005D0012004E020463946BDE8F08D002018
:1007E000054346EAE0762C4337430A986305E40A5A
:1007F000A0EB08000022FD0A44EA47540A3002D563
:1008000000200146E9E7010510196941DDE90845C5
:1008100000196941BDE8F04DA2E70000064C074D04
:1008200006E0E06840F0010394E8070098471034C0
:10083000AC42F6D3FFF7ACFC50020108700201088D
:1008400010B5002417E004EB4401C1EB44110B4A3E
:1008500002EBC10101F10C009FED091ADFED090A5D
:100860009FED090A4FF4FA6341F28832032107F041
:1008700011FC601CC4B2042CE5DB10BD4801002053
:10088000000000009A99993E9A99D94000BFFEE76E
:1008900000B58BB000200790012008900020019047
:1008A0000290039004900590012009900E200A9078
:1008B0000020069001A9064801F076FE02210448B6
:1008C00001F0C6FD024802F012FA0BB000BD0000B4
:1008D000C405002010B5024801F0BDFF10BD0000A6
:1008E000C40500200268A2F2012232B1012A1BD005
:1008F000022A34D0032A68D14CE04A780B7842EAC5
:100900000322334B1A80CA788B7842EA032212B250
:100910002F4B5A804A790B7942EA032212B22C4BB0
:100920009A808A79DA8050E04A780B7842EA03228A
:10093000274BA3F8E820CA788B7842EA032213B247
:10094000234AA2F8EA304A790B7942EA032213B229
:100950001F4AA2F8EC308B79A2F8EE3035E04A78E5
:100960000B7842EA03221A4BA3F8D021CA788B787D
:1009700042EA032213B2164AA2F8D2314A790B791D
:1009800042EA032213B2124AA2F8D4318B79A2F8B8
:10099000D6311AE04A780B7842EA03220C4BA3F8CE
:1009A000B822CA788B7842EA032213B2084AA2F826
:1009B000BA324A790B7942EA032213B2044AA2F806
:1009C000BC328B79A2F8BE3200BF00BF7047000076
:1009D000480100202DE9F04107460C4615461E4609
:1009E0004FF400700D49086000208860C86008203E
:1009F0000861380A0A4908704F70200A8870CC7064
:100A0000280A08714D71300A8871CE71054B0A466B
:100A10000249054801F032FDBDE8F0819005002053
:100A20007000002080000020C405002010B50024C4
:100A300036E004EB4401C1EB44111B4A02EBC10157
:100A4000B1F9081001EE101AB8EEC11AF0EE410A21
:100A500004EB4401C1EB441102EBC101B1F90210F6
:100A600001EE101AB8EEC11AB0EE410A04EB4401CF
:100A7000C1EB441102EBC10101F10C0007F000FAD7
:100A8000BDEEC00A10EE100A00B204EB4401C1EB47
:100A90004411054A02EBC101A1F8E400601CC4B294
:100AA000042CC6DB10BD00004801002010B5044630
:100AB000092C6ED2DFE804F06D05121F2C39465365
:100AC000600001F0A3F864200AF01AF901F09EF822
:100AD00064200AF015F901F099F85AE001F0A6F83F
:100AE00064200AF00DF901F0A1F864200AF008F979
:100AF00001F09CF84DE000F0E5FA64200AF000F9FE
:100B000000F0E0FA64200AF0FBF800F0DBFA40E0C5
:100B100000F0F8FA64200AF0F3F800F0F3FA642029
:100B20000AF0EEF800F0EEFA33E000F0DBFA6420B1
:100B30000AF0E6F800F0D6FA64200AF0E1F800F0D6
:100B4000D1FA26E001F052F864200AF0D9F801F059
:100B50004DF864200AF0D4F801F048F819E001F0EB
:100B600075F864200AF0CCF801F070F864200AF0FF
:100B7000C7F801F06BF80CE000F0D4FA64200AF03A
:100B8000BFF800F0CFFA64200AF0BAF800F0CAFA11
:100B900000BF00BF10BD000010B59FED350A3548FD
:100BA00080ED000A9FED320A80ED010A9FED300AC8
:100BB00080ED050A9FED2E0A80ED040A9FED2C0AB8
:100BC00080ED100A9FED2A0A80ED070A9FED280AA2
:100BD00080ED080A9FED260A80ED090A00202549CC
:100BE00008850021234841850020224A1063506374
:100BF000002220488263C26301221F491F4803F07C
:100C000099FF01221E491F4803F094FF01221E494B
:100C10001E4803F08FFF01221D491E4803F08AFF82
:100C200004F0EEF918211C4803F008F918211B48BC
:100C300003F004F900211A4803F065FA184802F09D
:100C400081FF184802F07EFF0021174803F030FCB6
:100C50000421154803F02CFCDFED051A9FED041A62
:100C6000DFED030A9FED020A08F0E6F910BD00006F
:100C700000000000E804002095000020E80A0020A1
:100C8000880A0020280B0020CE000020680B0020DE
:100C900096000020A80A002078060020B406002054
:100CA0003C060020F00600202C070020704770470B
:100CB00070B504461D460023B5F5804F13D154F896
:100CC00022300C480340D1E9000640EA06108E6845
:100CD00040EA06208E8940EA06408E69304303438D
:100CE00044F8223003E06FF0704044F82200002006
:100CF00070BD00000000F0CF10B503460022086868
:100D000053F8202012480240D1E901042043CC6866
:100D100020430C6920434C6920438C692043CC69F3
:100D200020430C6A20434C6A20438C6A2043CC6ADF
:100D30002043CC6B20430C6B204302438868082877
:100D400001D142F04002086843F82020002010BD85
:100D50008000F0FF30B503460024501C53F82040BB
:100D600004F04044D1E9000540EA05108D6840EAEE
:100D700005208D8940EA0545088A401E45EA005550
:100D8000087D801E45EA00608D6928430443501C9D
:100D900043F82040002030BD2DE9F0412DED028BBD
:100DA000054601260127B04601243B4890ED040A80
:100DB000B0EE408A2846FFF779FEDFED381A9FED46
:100DC000371ADFED360A9FED350A08F035F905F0E0
:100DD000F3FF0020324908803249088031E000BF2B
:100DE0003148008800F400400028F9D001F01AF9D9
:100DF00098B99CB12046611CCCB205280ADADFED17
:100E0000271A9FED261ADFED250A9FED240A08F028
:100E100013F916E014B1002400E0012401F07CF87D
:100E20003CB9B8F1010F04D1B0EE480A08F004F85B
:100E300006E04FF0000806F071FF064606B901E033
:100E400000BFCCE700BF19488069B0F57A7F0ED2A9
:100E50000BE000BF1548008800F400400028F9D0DE
:100E600006F0B2FD074607B900E0F2E700BF00F068
:100E7000FDFEDFED0A1A9FED091ADFED080A9FED6E
:100E8000070A08F0D9F807F0B5FF05F095FFBDECAB
:100E9000028BBDE8F0810000E804002000000000A3
:100EA0008C0000209000002010010020EC000020A9
:100EB0002DE9F0412DED028B074601243A4890EDD3
:100EC000050AB0EE408A3846FFF7F0FDDFED371A2D
:100ED0009FED361ADFED350A9FED340A08F0ACF8C5
:100EE00005F06AFF0020324908803249088031E06D
:100EF00000BF3148008800F400400028F9D000BF4E
:100F00002E48008800F400400028F9D001F08AF84B
:100F100098B99CB12046611CCCB205280ADADFEDF5
:100F2000231A9FED221ADFED210A9FED200A08F017
:100F300083F80FE014B1002400E0012424B9B0EEDE
:100F4000480A07F079FF04E006F0E8FE054605B917
:100F500001E000BFCCE700BF18488069B0F57A7F98
:100F60000ED80BE000BF1548008800F400400028B0
:100F7000F9D006F029FD064606B900E0F2E700BF09
:100F800000F074FEDFED091A9FED081ADFED070A85
:100F90009FED060A08F050F807F02CFF05F00CFF53
:100FA000BDEC028BBDE8F081E804002000000000E9
:100FB0008C0000209000002010010020EC00002098
:100FC0002DE9F0412DED028B07460124374890EDC5
:100FD000050AB0EE408A9FED360AF0EE408A3846A8
:100FE000FFF764FDDFED321A9FED311ADFED300AB5
:100FF0009FED2F0A08F020F805F0DEFE00202D49B5
:1010000008802D49088027E000BF2C48008800F4A4
:1010100000400028F9D000BF2948008800F40040B3
:101020000028F9D000F0FEFF40B944B12046611C11
:10103000CCB2052803DB14B1002400E0012400F049
:101040006BFF24B9B0EE480A07F0F6FE04E006F0A4
:1010500065FE054605B900E0D6E700BF184880697F
:10106000B0F57A7F0ED80BE000BF1548008800F479
:1010700000400028F9D006F0A7FC064606B900E0BB
:10108000F2E700BF00F0F2FDDFED091A9FED081A4C
:10109000DFED070A9FED060A07F0CEFF07F0AAFE74
:1010A00005F08AFEBDEC028BBDE8F081E80400206B
:1010B000000000008C0000209000002010010020A3
:1010C000EC00002010B53320044908704FF47A7307
:1010D0000122034803F030FF10BD000098000020FB
:1010E000E80A002010B53520044908704FF47A73DF
:1010F0000122034803F020FF10BD000098000020EB
:10110000E80A002010B53420044908704FF47A73BF
:101110000122034803F010FF10BD000098000020DA
:10112000E80A002010B53820044908704FF47A739B
:101130000122034803F000FF10BD000098000020CA
:10114000E80A002010B52DED028B9FEDFC0AF0EEB1
:10115000408A9FEDFB0AB0EE408ADFEDF91A9FED61
:10116000F81ADFEDF70A9FEDF60A07F065FF05F0C4
:1011700023FEFDE300BFF348008800F40040002890
:10118000F9D000F0C9FE70BB9FEDED1ADFEDEE0A5D
:101190009FEDEB0A00F074FEEC48B0F9C00202EEDD
:1011A000100AB8EEC22AF0EE421AE848B0F9D801A7
:1011B00002EE100AB8EEC22AB0EE421AE348B0F9C5
:1011C000F00002EE100AB8EEC22AF0EE420ADF4842
:1011D000B0F9080002EE100AB8EEC22AB0EE420AD8
:1011E00007F02AFFC4E3FFE7D948006808B90120E7
:1011F00000E00020D6490860D248806940F2DC5106
:10120000884200D2B4E3CF488069B0F57A6F56D9EE
:10121000D04890ED050AB0EE408A9FEDCF0AB4EEBB
:10122000C08AF1EE10FA0ADD9FEDCC0AB4EEC08A56
:10123000F1EE10FA03D29FEDCA0AF0EE408A9FED5C
:10124000C60AB4EEC08AF1EE10FA08D2B5EEC08A32
:10125000F1EE10FA03DD9FEDC30AF0EE408ABDEE19
:10126000E80A10EE100A02B20021084600F01AFD4A
:10127000B648B0F9C00202EE100AB8EEC22AF0EE8B
:10128000421AB248B0F9D80102EE100AB8EEC22AEA
:10129000B0EE421AAD48B0F9F00002EE100AB8EE16
:1012A000C22AF0EE420AA948B0F9080002EE100A7C
:1012B000B8EEC22AB0EE420A07F0BEFE1FE2A14815
:1012C00090ED070AB8EE400AA748D0ED000AB2EE4A
:1012D000041A70EEC10AB4EEE00AF1EE10FA2ED252
:1012E0009FED9F1ADFED960A9FED950A00F0C8FD6D
:1012F0009648B0F9C00202EE100AB8EEC22AF0EE2B
:10130000421A9248B0F9D80102EE100AB8EEC22A89
:10131000B0EE421A8D48B0F9F00002EE100AB8EEB5
:10132000C22AF0EE420A8948B0F9080002EE100A1B
:10133000B8EEC22AB0EE420A07F07EFEDFE1814835
:1013400090ED070AB8EE400A8748D0ED000AB2EEE9
:10135000041A70EE810AB4EEE00AF1EE10FA38DDFC
:101360009FED801ADFED760A9FED750A00F088FD8B
:101370007648B0F9C00202EE100AB8EEC22AF0EECA
:10138000421A7248B0F9D80102EE100AB8EEC22A29
:10139000B0EE421A6D48B0F9F00002EE100AB8EE55
:1013A000C22AF0EE420A6948B0F9080002EE100ABB
:1013B000B8EEC22AB0EE420A07F03EFEDFED6B1A2D
:1013C0009FED6A1ADFED690A9FED680A07F034FEA7
:1013D000F6E35C48806940F6B83188422ED99FED2B
:1013E000581ADFED590A9FED560A00F049FD57489B
:1013F000B0F9C00202EE100AB8EEC22AF0EE421AAC
:101400005248B0F9D80102EE100AB8EEC22AB0EE86
:10141000421A4E48B0F9F00002EE100AB8EEC22AA5
:10142000F0EE420A4948B0F9080002EE100AB8EEA0
:10143000C22AB0EE420A07F0FFFDC1E3414890ED39
:10144000060AB8EE400A4A48D0ED000A9FED491A54
:1014500070EE810AB4EEE00AF1EE10FA2EDD9FED97
:10146000381ADFED450A9FED360A00F009FD3748CE
:10147000B0F9C00202EE100AB8EEC22AF0EE421A2B
:101480003248B0F9D80102EE100AB8EEC22AB0EE26
:10149000421A2E48B0F9F00002EE100AB8EEC22A45
:1014A000F0EE420A2948B0F9080002EE100AB8EE40
:1014B000C22AB0EE420A07F0BFFD81E3214890ED59
:1014C000060AB8EE400A2A48D0ED000A9FED291A14
:1014D00070EEC10AB4EEE00AF1EE10FA50D29FEDC0
:1014E000181ADFED260A9FED160A00F0C9FC17480E
:1014F000B0F9C00202EE100AB8EEC22AF0EE421AAB
:101500001248B0F9D80102EE100AB8EEC22AB0EEC5
:10151000421A0E48B0F9F00002EE100AB8EEC22AE4
:10152000F0EE420A0948B0F9080002EE100AB8EEDF
:10153000C22AB0EE420A07F07FFD41E30000964365
:1015400000000000EC00002000007A444801002068
:10155000A8824242E8040020000034430000874390
:10156000000016C400001644040000200000C84318
:10157000080000200000C8420000FA430000FAC33F
:10158000FC4890ED070AB8EE400AFB48D0ED000A8F
:10159000B1EE041A70EEC10AB4EEE00AF1EE10FAF0
:1015A0002ED21FED0A1A5FED1A0A1FED1B0A00F07A
:1015B00067FCF248B0F9C00202EE100AB8EEC22A87
:1015C000F0EE421AED48B0F9D80102EE100AB8EE7A
:1015D000C22AB0EE421AE948B0F9F00002EE100A51
:1015E000B8EEC22AF0EE420AE448B0F9080002EE72
:1015F000100AB8EEC22AB0EE420A07F01DFDDFE283
:10160000DC4890ED070AB8EE400ADB48D0ED000A4E
:10161000B1EE041A70EE810AB4EEE00AF1EE10FAAF
:101620002EDD1FED2B1A5FED3A0A1FED3B0A00F08D
:1016300027FCD248B0F9C00202EE100AB8EEC22A66
:10164000F0EE421ACD48B0F9D80102EE100AB8EE19
:10165000C22AB0EE421AC948B0F9F00002EE100AF0
:10166000B8EEC22AF0EE420AC448B0F9080002EE11
:10167000100AB8EEC22AB0EE420A07F0DDFC9FE283
:10168000BC4890ED060AB8EE400ABD48D0ED000A0D
:101690009FEDBC1A70EE810AB4EEE00AF1EE10FA8A
:1016A0002EDD1FED591A5FED5B0A1FED5B0A00F09E
:1016B000E7FBB248B0F9C00202EE100AB8EEC22A47
:1016C000F0EE421AAD48B0F9D80102EE100AB8EEB9
:1016D000C22AB0EE421AA948B0F9F00002EE100A90
:1016E000B8EEC22AF0EE420AA448B0F9080002EEB1
:1016F000100AB8EEC22AB0EE420A07F09DFC5FE283
:101700009C4890ED060AB8EE400A9D48D0ED000ACC
:101710009FED9C1A70EEC10AB4EEE00AF1EE10FAE9
:101720002ED21FED791ADFED980A1FED7B0A00F02B
:10173000A7FB9248B0F9C00202EE100AB8EEC22A26
:10174000F0EE421A8D48B0F9D80102EE100AB8EE58
:10175000C22AB0EE421A8948B0F9F00002EE100A2F
:10176000B8EEC22AF0EE420A8448B0F9080002EE50
:10177000100AB8EEC22AB0EE420A07F05DFC1FE282
:101780007C4890ED070AB8EE400A7B48D0ED000A8D
:10179000B0EE001A70EEC10AB4EEE00AF1EE10FAF3
:1017A0002ED29FED7A1A5FED9A0A1FED9B0A00F088
:1017B00067FB7248B0F9C00202EE100AB8EEC22A06
:1017C000F0EE421A6D48B0F9D80102EE100AB8EEF8
:1017D000C22AB0EE421A6948B0F9F00002EE100ACF
:1017E000B8EEC22AF0EE420A6448B0F9080002EEF0
:1017F000100AB8EEC22AB0EE420A07F01DFCDFE183
:101800005C4890ED070AB8EE400A5B48D0ED000A4C
:10181000B0EE001A70EE810AB4EEE00AF1EE10FAB2
:101820002EDD9FED5B1A5FEDBA0A1FEDBB0A00F0DB
:1018300027FB5248B0F9C00202EE100AB8EEC22AE5
:10184000F0EE421A4D48B0F9D80102EE100AB8EE97
:10185000C22AB0EE421A4948B0F9F00002EE100A6E
:10186000B8EEC22AF0EE420A4448B0F9080002EE8F
:10187000100AB8EEC22AB0EE420A07F0DDFB9FE183
:101880003C4890ED060AB8EE400A3D48D0ED000A0B
:10189000B3EE041A70EE810AB4EEE00AF1EE10FA2B
:1018A0002EDD1FEDD91ADFED3A0A1FEDDB0A00F03D
:1018B000E7FA3248B0F9C00202EE100AB8EEC22AC6
:1018C000F0EE421A2D48B0F9D80102EE100AB8EE37
:1018D000C22AB0EE421A2948B0F9F00002EE100A0E
:1018E000B8EEC22AF0EE420A2448B0F9080002EE2F
:1018F000100AB8EEC22AB0EE420A07F09DFB5FE183
:101900001C4890ED060AB8EE400A1D48D0ED000ACA
:10191000B3EE041A70EEC10AB4EEE00AF1EE10FA6A
:1019200041D21FEDF91ADFED190A1FEDFB0A00F095
:10193000A7FA1248B0F9C00202EE100AB8EEC22AA5
:10194000F0EE421A0D48B0F9D80102EE100AB8EED6
:10195000C22AB0EE421A0948B0F9F00002EE100AAD
:10196000B8EEC22AF0EE420A0448B0F9080011E0CD
:1019700027E10000EC0000200400002048010020C6
:101980000800002000004842000096C3000048C341
:101990000000484302EE100AB8EEC22AB0EE420A36
:1019A00007F04AFB0CE18A4890ED060AB8EE400ABF
:1019B0008848D0ED000AB2EE041A70EE810AB4EE47
:1019C000E00AF1EE10FA2EDD9FED831ADFED830AB7
:1019D0009FED810A00F054FA8148B0F9C00202EE8E
:1019E000100AB8EEC22AF0EE421A7D48B0F9D801CA
:1019F00002EE100AB8EEC22AB0EE421A7848B0F9E8
:101A0000F00002EE100AB8EEC22AF0EE420A744864
:101A1000B0F9080002EE100AB8EEC22AB0EE420A8F
:101A200007F00AFBCCE06A4890ED060AB8EE400ADF
:101A30006848D0ED000AB2EE041A70EEC10AB4EEA6
:101A4000E00AF1EE10FA2ED29FED631ADFED650A7F
:101A50009FED610A00F014FA6148B0F9C00202EE8D
:101A6000100AB8EEC22AF0EE421A5D48B0F9D80169
:101A700002EE100AB8EEC22AB0EE421A5848B0F987
:101A8000F00002EE100AB8EEC22AF0EE420A544804
:101A9000B0F9080002EE100AB8EEC22AB0EE420A0F
:101AA00007F0CAFA8CE04A4890ED070AB8EE400AFF
:101AB0004D48D0ED000AB7EE001A70EEC10AB4EE40
:101AC000E00AF1EE10FA2ED29FED461ADFED420A3F
:101AD0009FED410A00F0D4F94148B0F9C00202EE8E
:101AE000100AB8EEC22AF0EE421A3D48B0F9D80109
:101AF00002EE100AB8EEC22AB0EE421A3848B0F927
:101B0000F00002EE100AB8EEC22AF0EE420A3448A3
:101B1000B0F9080002EE100AB8EEC22AB0EE420A8E
:101B200007F08AFA4CE02A4890ED070AB8EE400A1E
:101B30002D48D0ED000AB7EE001A70EE810AB4EE1F
:101B4000E00AF1EE10FA2EDD9FED241ADFED220AF5
:101B50009FED210A00F094F92148B0F9C00202EE8D
:101B6000100AB8EEC22AF0EE421A1D48B0F9D801A8
:101B700002EE100AB8EEC22AB0EE421A1848B0F9C6
:101B8000F00002EE100AB8EEC22AF0EE420A144843
:101B9000B0F9080002EE100AB8EEC22AB0EE420A0E
:101BA00007F04AFA0CE0DFED0C1A9FED0B1ADFED9F
:101BB0000A0A9FED090A07F03FFA07F0F9F802E078
:101BC00000BFFFF7D7BA00BFBDEC028B10BD00000D
:101BD000EC00002008000020000000000000C842C7
:101BE000480100200000C8C20400002010B53620C3
:101BF000044908704FF47A730122034803F09CF9FA
:101C000010BD000098000020E80A002010B5322026
:101C1000044908704FF47A730122034803F08CF9E9
:101C200010BD000098000020E80A002010B5312007
:101C3000044908704FF47A730122034803F07CF9D9
:101C400010BD000098000020E80A002010B53720E1
:101C5000044908704FF47A730122034803F06CF9C9
:101C600010BD000098000020E80A002010B510E028
:101C70000948006800B10DE007E09FED081ADFEDAC
:101C8000080A9FED060A00F0FBF8034800680028E8
:101C9000F3D0EDE700BF10BD080241420000000094
:101CA000000096432DE9F0412DED0E8B0746884646
:101CB0001446714890ED040A10EE101A0846FEF71B
:101CC00087FC41EC1E0BB0EE4E0AF0EE6E0A08F0F7
:101CD00073F8B0EE40CAF0EE60CA4046FEF73BFC37
:101CE00041EC1D0B53EC1C2BFEF754FB41EC1A0B83
:101CF000614890ED040A10EE101A0846FEF768FCE1
:101D000041EC1E0BB0EE4E0AF0EE6E0A07F0E4FF57
:101D1000B0EE40CAF0EE60CA3846FEF71CFC41EC5B
:101D20001D0B53EC1C2BFEF735FB41EC1B0B53EC4E
:101D30001A2BFEF788FA41EC190BFEF72AFC05B2C4
:101D40004D4890ED040A10EE101A0846FEF740FCCC
:101D500041EC1E0BB0EE4E0AF0EE6E0A07F0BCFF2F
:101D6000B0EE40CAF0EE60CA4046FEF7F4FB41EC2C
:101D70001D0B53EC1C2BFEF70DFB41EC1A0B3E48E0
:101D800090ED040A10EE101A0846FEF721FC41EC13
:101D90001E0BB0EE4E0AF0EE6E0A08F00DF8B0EE33
:101DA00040CAF0EE60CA7842FEF7D5FB41EC1D0B4D
:101DB00053EC1C2BFEF7EEFA41EC1B0B53EC1A2BE9
:101DC000FEF741FA41EC190BFEF7E3FB06B208EE11
:101DD000104AA81900EE100AB8EEC00AF8EEC80AB8
:101DE000B7EE001A00EE810ABDEEC00A10EE100A2E
:101DF00000B222490881A81B00EE100AB8EEC00A02
:101E0000F8EEC80AB7EE001A00EE810ABDEEC00A6D
:101E100010EE100A01B21948A0F8F0106842801BB9
:101E200000EE100AB8EEC00AF8EEC80AB7EE001AC3
:101E300000EE810ABDEEC00A10EE100A01B20F4892
:101E4000A0F8D8116842304400EE100AB8EEC00A7B
:101E5000F8EEC80AB7EE001A00EE810ABDEEC00A1D
:101E600010EE100A01B20548A0F8C01205F066F99C
:101E7000BDEC0E8BBDE8F081E80400204801002095
:101E800010B52DED048BB0EE408AF0EE608AB0EE16
:101E9000419A38EE280AF7EE000A09EE200ABDEE54
:101EA000C00A10EE100A00B21A49088138EE680A1A
:101EB000F7EE000A09EE200ABDEEC00A10EE100A85
:101EC00001B21448A0F8F010B1EE480A30EE680AEA
:101ED000F7EE000A09EE200ABDEEC00A10EE100A65
:101EE00001B20C48A0F8D811B1EE480A30EE280A29
:101EF000F7EE000A09EE200ABDEEC00A10EE100A45
:101F000001B20448A0F8C01205F018F9BDEC048B2A
:101F100010BD0000480100201CB53748008800F4BF
:101F2000004080B134488179407941EA002033494A
:101F300008603148017AC07941EA002030490860E0
:101F400000202D4908802D480068F0280DD32B482B
:101F50000068B0F5967F08D829480068B0F57A6F18
:101F600003D8274800680A2804D20020224981F8B3
:101F700020001CBD214800681F49C8612048006836
:101F80008861012081F820001EA018210B46C8227C
:101F9000CDE900104FF407711E2004F04BFC18200F
:101FA0000090154804234FF40771C2699F2004F084
:101FB000F7FB17A018210B46C822CDE900104FF4FB
:101FC00011711E2004F036FC182000900A480423EA
:101FD0004FF4117182699F2004F0E2FB0FA01821D9
:101FE0000B46C822CDE900104FF41B711E2004F0EF
:101FF00021FC0120BDE70000EC000020380000209B
:102000003C00002052616461725F5261643A0000DA
:1020100052616461725F4C656E3A000052616461A6
:10202000722100007CB53048008800F4004060B1A7
:102030002D48C189808941EA00242B48418A008AC1
:1020400041EA00250020284908800A2C06D340F2E6
:102050007620844202D8B5F5FA7F04D200202249C6
:1020600081F834007CBD20480463C56201201E490C
:1020700081F834001DA018210B46C822CDE90010BC
:102080004FF40771E62004F0D5FB182000901648A5
:1020900004234FF40771026B40F2671004F080FBD9
:1020A00015A018210B46C822CDE900104FF411717C
:1020B000E62004F0BFFB182000900B4804234FF4E7
:1020C0001171C26A40F2671004F06AFB0DA018217A
:1020D0000B46C822CDE900104FF41B71E62004F036
:1020E000A9FB0120BEE700001001002056697369BA
:1020F0006F6E2E583A000000566973696F6E2E4459
:1021000065703A0056696577210000005A4890EDE5
:10211000050A80ED100A594880795849C97940EA82
:10212000012000EE100AB8EEC00ADFED550A80EE7D
:10213000201A9FED540A21EE000A4F4880ED050A4F
:1021400090ED050ADFED500A20EE200ADFED4D0A82
:1021500080EE201A80ED041A08E0474890ED050A49
:10216000DFED4A0A30EE200A80ED050A424890ED84
:10217000050AB5EEC00AF1EE10FAEED308E03E48CB
:1021800090ED050ADFED410A30EE600A80ED050AA8
:10219000394890ED050ADFED3D0AB4EEE00AF1EEB4
:1021A00010FAECDC08E0344890ED040ADFED380A60
:1021B00030EE200A80ED040A2F4890ED040AB5EEB7
:1021C000C00AF1EE10FAEED308E02B4890ED040AB5
:1021D000DFED2F0A30EE600A80ED040A264890ED0C
:1021E000040ADFED2B0AB4EEE00AF1EE10FAECDCA3
:1021F000002028490880204890ED050AD0ED100AFB
:1022000030EE600A80ED060A90ED060ADFED220A44
:10221000B4EEE00AF1EE10FA08DD90ED060ADFED0B
:102220001B0A30EE600A80ED060A11E0124890EDBC
:10223000060ADFED1A0AB4EEE00AF1EE10FA07D250
:1022400090ED060ADFED110A30EE200A80ED060A55
:102250001348006808B9012000E000201049086018
:102260001048D0F8A40208B9012000E000200C4971
:10227000091F086070470000E8040020F8080020EB
:102280000000004700003443DB0F49400000B44326
:10229000DB0FC9408E00002000009643000096C36B
:1022A000A88242420080424210B52DED0C8B84B0D2
:1022B0005E48008800F4004000287DD0FFF726FF2C
:1022C00005F00EFF5A4890ED040A10EE101A084669
:1022D000FEF77EF941EC1C0BB0EE4C0AF0EE6C0AF6
:1022E00007F0FAFCB0EE40BAF0EE60BA51EC1B0B0E
:1022F000FEF7B2F900904E4890ED040A10EE101A65
:102300000846FEF765F941EC1D0BB0EE4D0AF0EE04
:102310006D0A07F051FDB0EE40CAF0EE60CA51EC14
:102320001C0B81F00041FEF797F901909DED010A29
:10233000B1EE400A8DED020A9DED000A8DED030A13
:102340003B4890ED060A9FED3B1AC0EE010A9FED57
:102350003A0A20EE808A90ED060A9FED361AC0EE0A
:10236000010A9FED360A60EE808A354890ED000A3A
:1023700030EE080A80ED000A324890ED000A30EE97
:10238000280A80ED000A2A48B0F9280000EE100A59
:10239000B8EEC00A30EE08AA2548B0F92A0000EECF
:1023A000100AB8EEC00A70EE68AA9FED270A8AEEFE
:1023B000009A9FED260A00E033E0CAEE809A9DED78
:1023C000000A20EE090ADDED010A09EEA00A18480C
:1023D000D0ED000A30EE200A80ED000A9DED020AE1
:1023E00020EE090ADDED030A09EEA00AD0ED010A8C
:1023F00030EE200A80ED010AD0E90C300C49B1F929
:102400002810CA1759185041094AC2E90C10104641
:10241000D0E90E41B0F92A00C31720185941C2E98A
:102420000E0104B0BDEC0C8B10BD00008E0000202E
:10243000E80400200000344300F8724600E47346CC
:10244000400000204400002000E13647007E3A476B
:10245000024692F82000012803D092F820000228BA
:1024600006D110684069084313685861002070471E
:10247000506A40F4802050620120F8E770B50446AD
:102480000D46A86800B900E000BF94F820000128BC
:1024900003D094F8200002287FD12068806800F0E3
:1024A000806050B92068806800F0006028B920681A
:1024B000806800F08050002869D020688068C0F3F0
:1024C0000161012088401860A86850B92E88E8682A
:1024D00040EA4656206800F5C07000EB0110066027
:1024E0000BE0D5E9016040EAC600EE68304326689B
:1024F00006F5C07606EB011630602E69206800F5FF
:10250000C07000EB01104660287D01280DD12068C5
:1025100000F5C07000EB0110406840F48076206840
:1025200000F5C07000EB01104660D0790006967986
:1025300040EA0640567940EA0626107906432068AC
:1025400000F5C07000EB0110C660D07800069678E8
:1025500040EA0640567840EA06201678304326685E
:1025600006F5C07606EB0116B060206800F5C07075
:1025700000EB0110006840F00106206800F5C07013
:1025800000EB01100660002070BD06E0FFE7606A06
:1025900040F4001060620120F6E7606A40F4802099
:1025A00060620120F0E7000070B504460A4600238F
:1025B000216894F82000012803D094F82000022814
:1025C0007CD1414901F50071086840F001000860C4
:1025D000086820F47C5008600868556A40EA0520C5
:1025E0000860157D012000FA05F3C8699843C861A9
:1025F000A1F50071D069C8B9D1F80C029843C1F8AF
:102600000C02908880B2958940EA054501F510706A
:10261000566940F83650108880B2158940EA054561
:1026200001F51070566900EBC6004560D0690128BD
:1026300019D1D1F80C021843C1F80C02908880B26D
:10264000158840EA054501F51070566940F8365086
:10265000908980B2158940EA054501F510705669E8
:1026600000EBC6004560906928B9D1F80402984390
:10267000C1F8040204E0D1F804021843C1F80402CE
:10268000106928B9D1F814029843C1F8140204E083
:10269000D1F814021843C1F81402106A012804D1B9
:1026A000D1F81C021843C1F81C02D1F8000220F036
:1026B0000100C1F80002002070BDFFE7606A40F42D
:1026C000802060620120F7E700640040704730B569
:1026D000044694F82000012803D094F82000022832
:1026E0007DD151B92068C06800F0030090B9606ADC
:1026F00040F400106062012030BD01290AD1206839
:10270000006900F0030028B9606A40F400106062BC
:102710000120F1E7206800F5D87000EB0110006897
:1027200000F004009060906840B9206800F5D8700F
:1027300000EB01100068400D106007E0206800F514
:10274000D87000EB01100068C0085060206800F5E8
:10275000D87000EB0110006800F002004008D06063
:10276000206800F5D87000EB0110406800F00F0001
:102770001061206800F5D87000EB0110406800F48B
:102780007F40000A9061206800F5D87000EB0110CE
:102790004068000C5061206800F5D87000EB011013
:1027A00080681870206800F5D87000EB0110806810
:1027B00000F47F40000A5870206800F5D87000EBE4
:1027C0000110806800F47F00000C9870206800F50C
:1027D000D87000EB01108068000ED87000E034E083
:1027E000206800F5D87000EB0110C06818712068EF
:1027F00000F5D87000EB0110C06800F47F40000ABB
:102800005871206800F5D87000EB0110C06800F422
:102810007F00000C9871206800F5D87000EB011063
:10282000C068000ED87131B92068C06840F020003F
:102830002568E86007E0012905D12068006940F0BB
:10284000200025682861002056E7606A40F4802057
:102850006062012050E72DE9F05F04460025206802
:1028600046692068D0F80490206887682068D0F80E
:102870000CA02068D0F810B02068D0F8188006F0BE
:102880000100002855D007F00100C0B101202168E7
:10289000886007F0020018B1204600F059FA0EE0F7
:1028A00007F0040010B145F4006508E007F00800E7
:1028B00010B145F4805502E0204600F048FA07F4D4
:1028C0008070C8B14FF480702168886007F4007090
:1028D00018B1204600F03EFA0EE007F4806010B117
:1028E00045F4005508E007F4006010B145F4804558
:1028F00002E0204600F02DFA07F48030C8B14FF412
:1029000080302168886007F4003018B1204600F05C
:1029100023FA0EE007F4802010B145F4004508E0EA
:1029200007F4002010B145F4803502E0204600F0A5
:1029300012FA06F0080038B10AF0100020B145F490
:10294000007510202168C86006F0040040B10AF04C
:10295000080028B108202168C860204600F0AAF9C4
:1029600006F0020038B12068C06800F0030010B122
:10297000204600F0A1F906F0400038B10BF010003D
:1029800020B145F4806510202168086106F0200020
:1029900040B10BF0080028B10820216808612046EA
:1029A00000F0A2F906F0100038B12068006900F0CC
:1029B000030010B1204600F098F906F4003040B151
:1029C00009F0100028B1102021684860204600F06E
:1029D0008DF906F4803040B109F0080028B10820D4
:1029E00021684860204600F0B8F906F4004088B33A
:1029F00009F0040078B306F4807020B108F00100FB
:102A000008B145F0010506F4007020B108F002009D
:102A100008B145F0020506F4806020B108F004001A
:102A200008B145F0040506F40060A0B108F070009C
:102A300088B108F07000402817D006DC10280BD0B1
:102A400020280CD0302819D10CE0502810D0602854
:102A500014D110E01DE019E045F008050FE045F045
:102A600010050CE045F0200509E045F0400506E0C2
:102A700045F0800503E045F4807500E000BF00BF2D
:102A80002068806920F07000216888610420216836
:102A900048602DB1606A284360622046FFF716FE49
:102AA000BDE8F09F70B5044600250CB9012070BD4B
:102AB00094F8200010B9204600F0B0F820680068B3
:102AC00020F002002168086000F0C6FA05460DE01B
:102AD00000F0C2FA401B0A2808D9606A40F40030AE
:102AE0006062052084F820000120E0E7206840684B
:102AF00000F002000028EBD12068006840F00100DF
:102B00002168086000F0A8FA05460DE000F0A4FA7C
:102B1000401B0A2808D9606A40F400306062052032
:102B200084F820000120C2E72068406800F001001E
:102B30000028EBD0207E012806D12068006840F0F4
:102B400080002168086005E02068006820F08000AF
:102B500021680860607E012806D12068006840F086
:102B600040002168086005E02068006820F040000F
:102B700021680860A07E012806D12068006840F026
:102B800020002168086005E02068006820F020002F
:102B900021680860E07E012806D12068006820F0E6
:102BA00010002168086005E02068006840F010000F
:102BB00021680860207F012806D12068006840F065
:102BC00008002168086005E02068006820F008001F
:102BD00021680860607F012806D12068006840F005
:102BE00004002168086005E02068006820F0040007
:102BF00021680860D4E9020108432169084361693A
:102C000008436168491E08432168C861002060626A
:102C1000012084F82000002049E7000010B586B0AC
:102C20000446142101A8FDF703FB1F4920688842D0
:102C300038D100BF002000901C48006840F00070B0
:102C40001A4908600846006800F00070009000BF54
:102C500000BF00BF0020009014481038006840F00A
:102C600001001249103908600846006800F00100B0
:102C7000009000BF00BF4FF4C050019002200290AE
:102C800000200390032004900920059001A9084822
:102C900000F0DCF800220121142000F068FA142072
:102CA00000F058FA06B010BD006400404038024001
:102CB000000002407047000010B504460749206834
:102CC000884209D1064B074A00212046FFF7FFFC46
:102CD00003490448FDF706FE10BD000000640040F3
:102CE00078000020A805002070477047704770B535
:102CF0000446002594F82000012822D1022084F8FF
:102D000020002068006820F001002168086000F0C1
:102D1000A3F905460DE000F09FF9401B0A2808D9E9
:102D2000606A40F400306062052084F820000120D1
:102D300070BD2068406800F001000028EBD160629F
:102D4000F6E7606A40F4002060620120F0E7704717
:102D5000704770477047704770477047014691F859
:102D60003500022803D080204865012070470520E7
:102D700081F835000868006820F001000A681060DA
:102D80000020F3E700B587B02A48006808B107B013
:102D900000BD01202749086000BF0020019026489F
:102DA000006840F00100244908600846006800F00F
:102DB0000100019000BF00BF881402900220039020
:102DC00001200490032005900C20069002A91B48C6
:102DD00000F03CF84FF68070029002200390012032
:102DE0000490032005900C20069002A9144800F0DE
:102DF0002DF84CF2337002900220039001200490D1
:102E0000032005900C20069002A90E4800F01EF841
:102E10004FF4805002900220039001200490032080
:102E200005900C20069002A9074800F00FF800BF9B
:102E3000ADE7000084000020383802400014024052
:102E400000100240000C024000180240F8B5024693
:102E50000B460025002400200021DCE0012606FAB4
:102E600001F51E6806EA0504AC4273D15E68022EC5
:102E700002D05E68122E13D1CF0802F1200656F858
:102E800027004E07F70E0F26BE40B0434F07FF0E38
:102E90001E69BE403043CF0802F1200646F82700E5
:102EA00010684F000326BE40B0431E7906F00306AB
:102EB0004F00BE40304310605E68012E08D05E684F
:102EC000022E05D05E68112E02D05E68122E13D13C
:102ED00090684F000326BE40B0434F00DE68BE40FE
:102EE00030439060506801268E40B0431E79C6F38F
:102EF00000168E4030435060D0684F000326BE401D
:102F0000B0434F009E68BE403043D0605E6806F01C
:102F10008056B6F1805F7DD100BF00260096404EFE
:102F2000366846F480463E4F3E603E46366806F4BC
:102F30008046009600BF00BF3A4E8F0856F8270023
:102F40008E07370F0F26BE40B043374EB24202D134
:102F5000002624E05EE0354EB24201D101261EE09B
:102F6000334EB24201D1022619E0324EB24201D1B3
:102F7000032614E0304EB24201D104260FE02F4E5A
:102F8000B24201D105260AE02D4EB24201D10626F9
:102F900005E02C4EB24201D1072600E008268F073B
:102FA0003F0FBE4030431F4E8F0846F82700264E85
:102FB0003068A0435E6806F48036B6F5803F00D1E5
:102FC0002043214E3060361D3068A0435E6806F411
:102FD0000036B6F5003F00D120431B4E361D306051
:102FE000361D3068A0435E6806F48016B6F5801F73
:102FF00000D12043144E08363060361D3068A0439F
:103000005E6806F40016B6F5001F00D120430E4E90
:103010000C363060491C1029FFF420AFF8BD0000C9
:1030200044380240083801400000024000040240D9
:1030300000080240000C0240001002400014024050
:1030400000180240001C0240003C01400AB18161AE
:1030500001E00B048361704701480068704700007D
:10306000A400002003480068034909780844014986
:1030700008607047A4000020AC00002010B50D4887
:10308000006840F400700B4908600846006840F48E
:10309000806008600846006840F480700860032083
:1030A00000F0A4F8002000F007F800F02BF8002052
:1030B00010BD0000003C024070B504460E48007888
:1030C0004FF47A71B1FBF0F00C490968B1FBF0F5EF
:1030D000284600F046FC08B1012070BD102C07D234
:1030E00000222146501E00F042F80548046001E02D
:1030F0000120F2E70020F0E7AC000020B000002043
:10310000A800002008B500BF00200090104800680B
:1031100040F480400E4908600846006800F4804092
:10312000009000BF00BF00BF00200090081F006893
:1031300040F08050091F08600846006800F0805089
:10314000009000BF00BF052000F050F808BD00004F
:103150004438024000BF00F01F02012191404209A3
:10316000920002F1E022C2F8001100BF70472DE981
:10317000F05F80460D461646002704F065FE0746C0
:1031800039462A46334601F00700C0F1070ABAF172
:10319000040F02D94FF0040A01E0C0F1070AD1463A
:1031A00000F1040ABAF1070F02D24FF0000A01E061
:1031B000A0F1030AD4464FF0010A0AFA09FAAAF16B
:1031C000010A0AEA020A0AFA0CFA4FF0010B0BFA9A
:1031D0000CFBABF1010B0BEA030B4AEA0B04214693
:1031E000404604F039FEBDE8F09F000000BF00F04B
:1031F0000702064B19684FF6FF031940044B0B43B7
:1032000043EA0221014B196000BF70470CED00E05A
:103210000000FA0570B504460D460CB9012070BDDA
:103220005848006800F00F00A84209D255490D70B7
:103230000846006800F00F00A84201D00120EEE728
:10324000207800F0020002281DD1207800F0040050
:10325000042805D14C48006840F4E0504A49086011
:10326000207800F00800082805D14748006840F49D
:103270006040454908604448006820F0F000A168BB
:10328000084341490860207800F00100A8B3606855
:10329000012807D13C4808380068C0F34040B8B95D
:1032A0000120BCE76068022802D06068032807D1CB
:1032B000354808380068C0F3406048B90120AEE7DF
:1032C000314808380068C0F3400008B90120A6E77B
:1032D0002D48006820F00300616808432A4908600F
:1032E000FFF7BAFE064609E0FFF7B6FE801B41F283
:1032F0008831884202D9032091E707E0224800681C
:1033000000F00C006168B0EB810FEDD11D48006842
:1033100000F00F00A84209D91A490D70084600684C
:1033200000F00F00A84201D0012078E7207800F0DB
:103330000400042807D11448006820F4E050E16834
:10334000084311490860207800F00800082808D1D7
:103350000D48006820F46040216940EAC1000A4934
:10336000086000F03DF808490968C1F30311074AF5
:10337000515CC840064908600020FFF79DFE002010
:103380004DE70000003C02400838024018010108E7
:10339000B00000200148006870470000B000002025
:1033A00000B5FFF7F7FF04490968C1F38221034A1A
:1033B000515CC84000BD00000838024028010108E7
:1033C00000B5FFF7E7FF04490968C1F34231034A3A
:1033D000515CC84000BD00000838024028010108C7
:1033E0002DE9F047002400250026A1462548006865
:1033F00000F00C0020B1042805D008283AD105E0DF
:10340000DFF8849039E0DFF8849036E01D48001F33
:10341000006800F03F041B48001F006800F48000B3
:1034200078B11A481749091F0968C1F38811A0FB30
:1034300001700146224600233846FCF7C1FE0546CE
:103440000EE011480F49091F0968C1F38811A0FB5C
:1034500001700146224600233846FCF7B1FE0546BE
:103460000848001F0068C0F30140401C4600B5FB3F
:10347000F6F902E0DFF8109000BF00BF4846BDE853
:10348000F0870000083802400024F40000127A009F
:10349000F8B504460CB90120F8BD207800F0010011
:1034A000002874D0F948006800F00C0004280DD002
:1034B000F648006800F00C00082813D1F348001FFC
:1034C000006800F48000B0F5800F0BD1EF48083899
:1034D0000068C0F34040002859D06068002856D1E9
:1034E0000120D9E700BF6068B0F5803F08D1E74808
:1034F0000838006840F48030E449083908601EE06C
:103500006068B0F5A02F0DD1E0480838006840F49D
:103510008020DE49083908600846006840F48030A1
:1035200008600CE0D9480838006820F48030D7499A
:10353000083908600846006820F48020086000BF51
:10354000606890B1FFF788FD054606E0FFF784FD4F
:10355000401B642801D903209EE7CC480838006846
:10356000C0F340400028F1D011E0FFF775FD05469B
:1035700006E0FFF771FD401B642801D903208BE7AB
:10358000C24808380068C0F340400028F1D12078D4
:1035900000F0020002285FD1BC48006800F00C0077
:1035A00058B1BA48006800F00C0008281CD1B74890
:1035B000001F006800F48000B0B9B4480838006803
:1035C000C0F3400020B1E068012801D0012063E78A
:1035D000AE480838006820F0F800216940EAC100D0
:1035E000AA490839086037E0E06800B30120A8491B
:1035F0000860FFF731FD054606E0FFF72DFD401B93
:10360000022801D9032047E7A04808380068C0F322
:1036100040000028F1D09D480838006820F0F800EC
:10362000216940EAC10099490839086014E0002086
:1036300097490860FFF710FD054606E0FFF70CFD0F
:10364000401B022801D9032026E79048083800686B
:10365000C0F340000028F1D1207800F008000828CD
:103660002CD16069A8B101208A490860FFF7F4FCF9
:10367000054606E0FFF7F0FC401B022801D90320B5
:103680000AE782486C300068C0F340000028F1D09F
:1036900014E000207F490860FFF7DEFC054606E0E5
:1036A000FFF7DAFC401B022801D90320F4E6774833
:1036B0006C300068C0F340000028F1D1207800F0A1
:1036C0000400042870D1002670483830006800F0EB
:1036D000805090B900BF002000906C4838300068DE
:1036E00040F080506949383108600846006800F0B1
:1036F0008050009000BF00BF01266748006800F4BA
:103700008070B0B96448006840F480706249086015
:10371000FFF7A2FC054606E0FFF79EFC401B0228CF
:1037200001D90320B8E65C48006800F480700028E6
:10373000F2D000BFA068012808D154486830006862
:1037400040F001005149683108601DE0A06805287B
:103750000DD14E486830006840F004004B49683194
:1037600008600846006840F0010008600CE0474827
:103770006830006820F0010044496831086008465C
:10378000006820F00400086000BFA068A8B1FFF73F
:1037900063FC054609E0FFF75FFC401B41F28831FE
:1037A000884202D9032077E626E03848683000686E
:1037B000C0F340000028EED013E0FFF74DFC0546B3
:1037C00008E0FFF749FC401B41F28831884201D9EB
:1037D000032061E62D4868300068C0F340000028EF
:1037E000EFD1012E07D129483830006820F08050F1
:1037F00026493831086000BFA069B8B32348006883
:1038000000F00C0008285ED0A069022846D10020F4
:103810001F490866FFF720FC054606E0FFF71CFC81
:10382000401B022801D9032036E6184808380068F2
:10383000C0F340600028F1D1D4E907010843616A70
:1038400040EA81110122A06AC2EB500041EA004126
:103850002C20005D41EA00600C49091F086001202E
:103860000B490866FFF7F8FB054607E02DE0FFF778
:10387000F3FB401B022801D903200DE6034808385A
:103880000068C0F340600028F1D01EE00838024014
:1038900000004742800E47420070004000200C4963
:1038A0000866FFF7D9FB054606E0FFF7D5FB401B8E
:1038B000022801D90320EFE506480068C0F3406004
:1038C0000028F2D101E00120E6E50020E4E5000057
:1038D000000047420038024070B504460E461546C7
:1038E0000CB9012070BD94F8490028B9002084F873
:1038F0004800204600F01CF804F108012068FDF79C
:10390000FBF93146A2682068FDF724FA2946236BAB
:10391000D4E90102FDF7CCF9A168206850F8210034
:1039200040F00100A268216841F822000020D9E798
:1039300010B50446FFF726FA10BD042808D14FF051
:10394000E021096941F004014FF0E022116107E034
:103950004FF0E021096921F004014FF0E0221161EC
:10396000704770B504462546681EB0F1807F01D3CC
:1039700001200FE0681E4FF0E02148610F214FF059
:10398000FF3004F069FA00204FF0E0218861072041
:103990000861002070BD70477047024600BF92F872
:1039A0003800012801D102207047012082F8380038
:1039B00000BF022082F839001068406820F07000D3
:1039C00013685860106840680B68184313685860A3
:1039D0001068806820F08000136898601068806824
:1039E0004B68184313689860012082F8390000BFC3
:1039F000002082F8380000BF00BFD5E710B50446AC
:103A00000CB9012010BD94F8390028B9002084F8C1
:103A10003800204600F00CF8022084F83900211DFF
:103A2000206805F0F7FB012084F839000020E9E761
:103A300010B586B00446142101A8FCF7F9FB3C49F7
:103A4000206888423FD100BF0020009039480068BC
:103A500040F00100374908600846006800F00100A6
:103A6000009000BF00BF00BF002000903148143814
:103A7000006840F001002F491439086008460068CA
:103A800000F00100009000BF00BF881501900220E7
:103A900002900020039004900120059001A926487F
:103AA000FFF7D4F9022200211920FFF760FB19204B
:103AB000FFF750FB032200211B20FFF758FB1B20C0
:103AC000FFF748FB32E01D49206888421AD100BF49
:103AD000002000901748001F006840F008001549BA
:103AE000091F08600846006800F00800009000BF49
:103AF00000BF012211463220FFF739FB3220FFF7C9
:103B000029FB13E00E49206888420FD100BF002036
:103B100000900848006840F4803006490860084674
:103B2000006800F48030009000BF00BF06B010BDF8
:103B3000000001404438024000000240000C0040F8
:103B40000040014001460868C06840F001000A6872
:103B5000D0600868006840F001000A68106000202A
:103B600070472DE9F04104460D46002600BF94F849
:103B70003800012802D10220BDE8F081012084F83C
:103B8000380000BF022084F839002068866826F0DB
:103B9000770626F47F4620688660286850283BD048
:103BA0000CDC202860D004DC002853D0102865D11C
:103BB00055E030285DD0402860D141E0602835D004
:103BC00070280DD0B0F5805F03D0B0F5005F55D1FF
:103BD00015E02068806820F00700216888604EE0CA
:103BE000D5E902136A68206805F094FB20688668AE
:103BF00026F0770646F07706206886603FE0D5E934
:103C000002136A68206805F085FB2068806840F42C
:103C100080402168886032E0EA686968206805F0C1
:103C20006FFC5021206805F081FB28E0EA68696894
:103C3000206805F0C7FC6021206805F077FB1EE0D6
:103C4000EA686968206805F05BFC4021206805F09F
:103C50006DFB14E00021206805F068FB0FE01021E7
:103C6000206805F063FB0AE02021206805F05EFB78
:103C700005E03021206805F059FB00E000BF00BFDF
:103C8000012084F8390000BF002084F8380000BF0C
:103C900000BF71E72DE9F04104460D464FF00008E2
:103CA0000026002714B90120BDE8F08194F83900FE
:103CB00028B9002084F83800204600F045F802209A
:103CC00084F839002068806820F007002168886047
:103CD000211D206805F09EFA2068D0F80880206831
:103CE00086692068076A286840EA080840F20330BD
:103CF0008643A969A86840EA0120064340F60C40C3
:103D000086434FF2F0008643E969E86840EA012003
:103D1000064328690001296A40EA0130064327F07A
:103D2000220727F088076969686840EA011007439D
:103D30002068C0F80880206886612068076201203A
:103D400084F839000020AFE710B586B0044614218E
:103D500001A8FCF76DFA2068B0F1804F2FD100BFA9
:103D6000002000903148006840F001002F490860B1
:103D70000846006800F00100009000BF00BF00BFCF
:103D80000020009029481038006840F001002749C1
:103D9000103908600846006800F00100009000BF7C
:103DA00000BF222001900220029000200390049086
:103DB0000120059001A91E48FFF748F833E01D498E
:103DC000206888422FD100BF00200090174800686B
:103DD00040F00400154908600846006800F004003F
:103DE000009000BF00BF00BF002000900F481038B7
:103DF000006840F008000D49103908600846006866
:103E000000F00800009000BF00BF4FF44050019048
:103E1000022002900020039004900220059001A946
:103E20000548FFF713F806B010BD00004038024007
:103E30000000024000080040000C024030B504467B
:103E40000D4615B1042D0CD105E00122002120689A
:103E500005F052FA10E001220421206805F04CFA26
:103E60000AE001220021206805F046FA012204211F
:103E7000206805F041FA00BF00BF2068006840F0EC
:103E8000010021680860002030BD000010B5044624
:103E90005049206888421DD14F480068D8B14F482A
:103EA0000068006A4FF6F57108404C4909680862DD
:103EB0004A480068006A40F0020048490968086200
:103EC00000204649096848624548007840F01000E3
:103ED000434908707CE00021404800F099FB4149CB
:103EE00008803E480068006A4FF6F57108403B497B
:103EF0000968086239480068006A38490968086238
:103F00003748007800F0100000285BD03448007873
:103F100000F08000F0B333480088B0F5967F0DDDE7
:103F200030480088B0F5487F08DA2F480068400024
:103F30002D49086008460068086043E02948008869
:103F4000B0F5AF6F0FDD27480088B0F5E16F0ADAF2
:103F5000254800684000244908600846006840F091
:103F6000010008602EE01F48008840F69801884252
:103F700028DD1C48008840F62821884222DA1B48A8
:103F80000078401C194908701548007800F0F000CE
:103F9000134900E001E0087014E01248008841F283
:103FA000680188420EDD0F48008841F25C2188429A
:103FB00008DA0B48007840F08000094908700020BA
:103FC0000A4908700648007820F01000044908707B
:103FD00010BD000000000140200240423C060020CD
:103FE00060000020620000206400002068000020C3
:103FF0002DE9F04104460D46164600BF94F83800FE
:10400000012802D10220BDE8F081012084F83800A7
:1040100000BF022084F8390096B9EB68D5E9001298
:10402000206805F083FA2068806920F00C00216880
:10403000886120688069A9680843216888613DE03B
:10404000042E13D1EB68D5E90012206805F0D0FAF0
:104050002068806920F44060216888612068806958
:10406000A96840EA01202168886127E0082E12D162
:10407000EB68D5E90012206805F0D9FA2068C0691C
:1040800020F00C002168C8612068C069A968084355
:104090002168C86112E0EB68D5E90012206805F0DC
:1040A000E4FA2068C06920F440602168C861206893
:1040B000C069A96840EA01202168C861012084F82C
:1040C000390000BF002084F8380000BF00BF9AE725
:1040D00010B504460CB9012010BD94F8390028B978
:1040E000002084F83800204600F00CF8022084F804
:1040F0003900211D206805F08DF8012084F8390071
:104100000020E9E7704730B504460D4635B1042D6F
:104110000BD0082D10D00C2D1CD114E02068C068E5
:1041200040F002002168C86015E02068C06840F0D7
:1041300004002168C8600EE02068C06840F00800F4
:104140002168C86007E02068C06840F0100021685E
:10415000C86000E000BF00BF01222946206805F0CA
:10416000CBF82068006840F001002168086000205A
:1041700030BD10B5044620680069C0F34000D8B1D6
:104180002068C068C0F34000B0B16FF00200216841
:104190000861012020762068806900F0030018B1D2
:1041A0002046FFF773FE05E0204600F0DFF82046CA
:1041B00000F07CF90020207620680069C0F38000C0
:1041C000D8B12068C068C0F38000B0B16FF00400BF
:1041D00021680861022020762068806900F4407020
:1041E00018B12046FFF752FE05E0204600F0BEF869
:1041F000204600F05BF90020207620680069C0F3BB
:10420000C000D8B12068C068C0F3C000B0B16FF082
:10421000080021680861042020762068C06900F049
:10422000030018B12046FFF731FE05E0204600F0FC
:104230009DF8204600F03AF90020207620680069B9
:10424000C0F30010D8B12068C068C0F30010B0B14E
:104250006FF0100021680861082020762068C0698E
:1042600000F4407018B12046FFF710FE05E020462C
:1042700000F07CF8204600F019F900202076206834
:10428000006900F0010058B12068C06800F001002A
:1042900030B16FF0010021680861204600F02EF96E
:1042A00020680069C0F3C01058B12068C068C0F32E
:1042B000C01030B16FF08000216808612046FFF720
:1042C0006AFB20680069C0F3801058B12068C0689C
:1042D000C0F3801030B16FF04000216808612046C3
:1042E00000F0C0F920680069C0F3401058B12068A0
:1042F000C068C0F3401030B16FF020002168086141
:104300002046FFF749FB10BD10B586B004461421C6
:1043100001A8FBF78DFF1249206888421DD100BF1C
:10432000002000900F48006840F010000D49086020
:104330000846006800F01000009000BF00BF602039
:10434000019002200290012003900220049003209B
:10435000059001A90448FEF779FD06B010BD0000E4
:10436000004001403038024000100240704770B5F4
:1043700004460D46164600BF94F83800012801D1C6
:10438000022070BD012084F8380000BF022084F8AC
:10439000390036B1042E1BD0082E31D00C2E5ED140
:1043A00045E02946206804F0CBFF2068806940F092
:1043B0000800216888612068806920F00400216875
:1043C000886120688069296908432168886147E01D
:1043D0002946206804F0ECFF2068806940F4006002
:1043E000216888612068806920F480602168886184
:1043F00020688069296940EA0120216888612FE0EE
:104400002946206805F010F82068C06940F00800CF
:104410002168C8612068C06920F004002168C86173
:104420002068C069296908432168C86118E02946E5
:10443000206805F035F82068C06940F40060216804
:10444000C8612068C06920F480602168C861206864
:10445000C069296940EA01202168C86100E000BF05
:1044600000BF012084F8390000BF002084F8380024
:1044700000BF00BF85E710B504460CB9012010BD90
:1044800094F8390028B9002084F83800204600F05C
:104490000CF8022084F83900211D206804F0BAFECF
:1044A000012084F839000020E9E7704770470000D8
:1044B00030B504460D4601222946206804F01CFF51
:1044C0000C492068884203D00B492068884201D1FA
:1044D000012000E0002028B12068406C40F400403A
:1044E000216848642068006840F001002168086085
:1044F000002030BD000001400004014070B50446BA
:104500003D49206888422BD13C48007800F080006B
:1045100030B33A48007820F0100038490870084657
:10452000007800F00F0020B90846007840F0400005
:1045300008703248007800F00F000E2805DA2F4886
:104540000078401C2D4908700AE02C48007820F0C3
:1045500080002A4908700846007800F0F0000870D2
:104560002749206888423CD126480088401C2549BC
:10457000088008460088052190FBF1F201FB12003B
:1045800060B9FCF753FA204DB5F99C33B5F9B42264
:10459000B5F9CC11B5F9E400FCF71CFA194800880C
:1045A0000A2190FBF1F201FB120038B9FDF77CFE05
:1045B000FDF738FD10B1002014490860114800884B
:1045C000322190FBF1F201FB1200022809D102F026
:1045D00065F902F0B3FD02F0EFFB02F0E9FA02F038
:1045E000A9FC084800884EF66021884202DD0020C0
:1045F0000449088070BD00000000014060000020F8
:10460000000C00401000002048010020A08242421F
:104610000246002300BF92F83800012801D1022091
:104620007047012082F8380000BF31B1042907D05B
:10463000082908D00C290CD108E01068436B09E068
:104640001068836B06E01068C36B03E01068036CAE
:1046500000E000BF00BF00BF002082F8380000BFAC
:104660001846DDE77047000038B504462068056845
:104670002068006800F0010028B1206840686FF0F1
:1046800001002168086020680068C0F3400028B17C
:10469000206840686FF002002168086020680068A8
:1046A000C0F3800028B1206840686FF004002168E2
:1046B0000860214800680068C0F3C00078B100BFFE
:1046C00000200090206800680090206840680090FA
:1046D00000BF00BF01221949174800F02BFA184803
:1046E00000680068C0F3C00078B100BF00200090EF
:1046F00020680068009020684068009000BF00BFFC
:10470000012210490E4800F015FA0F4800680068B1
:10471000C0F3C00078B100BF00200090206800689E
:10472000009020684068009000BF00BF0122074948
:10473000054800F0FFF938BD280B0020880A00204A
:10474000E80A002095000020680B00209600002059
:104750002DE9F0470446206805682068C66820688F
:1047600047694FF00008C14605F00F08B8F1000F87
:104770000AD105F0200038B106F0200020B1204613
:1047800004F0D4FFBDE8F087B8F1000F6DD007F05A
:10479000010018B906F49070002866D005F00100F9
:1047A00030B106F4807018B1E06B40F00100E063B6
:1047B00005F0040030B107F0010018B1E06B40F0E3
:1047C0000200E06305F0020030B107F0010018B10B
:1047D000E06B40F00400E06305F0080030B107F042
:1047E000010018B1E06B40F00800E063E06B68B3D3
:1047F00005F0200028B106F0200010B1204604F09A
:1048000095FF20684069C0F38019E06B00F0080054
:1048100010B9B9F1000F22D0204604F067FF2068DC
:10482000406900F04000B0B12068406920F04000CD
:1048300021684861606B50B11748616B0865606B17
:10484000FEF78CFA10B1606B016D88470CE02046D2
:10485000FFF70AFF08E02046FFF706FF04E02046C6
:10486000FFF702FF0020E0638CE705F0800030B125
:1048700006F0800018B1204605F05AF982E705F0ED
:10488000400030B106F0400018B1204604F03EFF71
:1048900078E700BF76E70000D996000810B5044617
:1048A0000CB9012010BDA06900B100E000BF94F870
:1048B000390028B9002084F83800204600F028F894
:1048C000242084F839002068C06820F40050216852
:1048D000C860204604F078FF2068006920F490400A
:1048E000216808612068406920F02A002168486139
:1048F0002068C06840F400502168C8600020E06370
:10490000202084F8390084F83A000020CAE700002B
:1049100010B586B00446142101A8FBF789FC7D4937
:104920002068884239D100BF002000907A48006892
:1049300040F40020784908600846006800F4002030
:10494000009000BF00BF00BF0020009072481038E8
:10495000006840F00400704910390860084600689B
:1049600000F00400009000BF00BF4FF440600190D1
:10497000022002900120039003200490082005905B
:1049800001A96648FEF762FA002202213420FEF7F0
:10499000EEFB3420FEF7DEFBB9E061492068884277
:1049A0003BD100BF002000905B48001D006840F034
:1049B00010005949091D08600846006800F0100001
:1049C000009000BF00BF00BF002000905248103888
:1049D000006840F00100504910390860084600683E
:1049E00000F00100009000BF00BF4FF4C0600190D4
:1049F00002200290012003900320049007200590DC
:104A000001A94848FEF722FA022200212520FEF7DC
:104A1000AEFB2520FEF79EFB79E0434920688842E3
:104A200038D100BF002000903B48006840F40030BF
:104A3000394908600846006800F40030009000BF63
:104A400000BF00BF0020009033481038006840F0DD
:104A500001003149103908600846006800F0010083
:104A6000009000BF00BF0C200190022002900120A6
:104A70000390032004900720059001A92948FEF720
:104A8000E5F9012200212620FEF771FB2620FEF722
:104A900061FB3CE025492068884238D100BF0020F6
:104AA00000901D48006840F480201B4908600846BB
:104AB000006800F48020009000BF00BF00BF00200D
:104AC000009015481038006840F002001249103973
:104AD00008600846006800F00200009000BF00BFB8
:104AE0004FF44060019002200290012003900320C7
:104AF00004900720059001A90D48FEF7A7F90022B0
:104B000011462720FEF733FB2720FEF723FB06B0D4
:104B100010BD0000004C0040403802400008024038
:104B200000100140000002400044004000480040E6
:104B30000004024010B5034693F83A0020281ED125
:104B400001B10AB9012010BD99629A85DA85002069
:104B5000D863222083F83A0000BF002083F8380091
:104B600000BF1868406940F001001C686061186867
:104B7000C06840F490701C68E0600020E3E7022009
:104B8000E1E70000F0B50146002300240025D64AE5
:104B90005268D64E3260D44E0A68B24262D1D44ACC
:104BA000128802F40042002A5CD1D24A1678D04A18
:104BB0001288C2F30D07CE4A921C22F81760921E8B
:104BC0001288C2F30D0222B9C94A5288402A00D085
:104BD000F0BDC74A1288C2F30D02012A07D1C44AA8
:104BE00092885E2A03D00022C14E3280F0E7C04A8C
:104BF0001288C2F30D02022A07D1BD4AD288762A52
:104C000003D00022BA4E3280E2E7B94A1288521C21
:104C1000B74E328032461288C2F30D020A2A19D1E9
:104C2000002007E0B24A921C12F810201A44D3B2B6
:104C3000421CD0B20928F5DBAD4A928A9A4206D1CD
:104C4000AB4A128842F40042A94E328002E00022B0
:104C5000A74E3280A44AD268A74E3260A24A126898
:104C6000A64E3260A64E0A68B2424ED1A54A1288BC
:104C700002F40042002A48D1A34A1278A14E368895
:104C8000C6F30D06A14FBA559E4A1288C2F30D0213
:104C900022B93A461278552A00D099E7994A1288E3
:104CA000C2F30D02012A04D1984A5278532A00D047
:104CB0008EE7944A1288521C924E328032461288F5
:104CC000C2F30D020B2A17D1002005E08F4A125CB7
:104CD0002244D4B2421CD0B20A28F7DB8B4A927A23
:104CE000A24206D1874A128842F40042854E3280A1
:104CF00002E00022834E3280814A0C321268844ED8
:104D000032607F4A1268834E3260834E0A68B24234
:104D100061D1824A128802F40042002A5BD1804AA3
:104D200016787E4A1288C2F30D077C4A921CD6552B
:104D3000921E1288C2F30D0222B9784A9278402A54
:104D400000D045E7754A1288C2F30D02012A07D147
:104D5000724AD2785E2A03D00022704E328037E742
:104D60006E4A1288C2F30D02022A07D16B4A1279E9
:104D7000722A03D00022694E328029E7674A1288DE
:104D8000521C664E328032461288C2F30D020A2A45
:104D900018D1002006E0614A921C125C2A44D5B268
:104DA000421CD0B20928F6DB5C4AD27AAA4206D16C
:104DB0005A4A128842F40042584E328002E00022E1
:104DC000564E32804E4A1268564E32604C4A0C3271
:104DD0001268554E3260554E0A68B24275D1544A37
:104DE000967D127802F07F07514A521CD655521E0A
:104DF000127802F07F0222B94D4A5278242A00D05C
:104E0000E6E64B4A1278521C494E3270324612780E
:104E100002F07F02082A5ED13246527DB67DB24250
:104E200054D1002206E0424E761CD71CF65D414F5D
:104E3000BE54521C042AF6DB3D4A9278642A2BD0D9
:104E4000692A15D0702A3BD1394A9269394E3668A1
:104E50001660374AD2782D2A09D1354A926992EDE7
:104E6000000AB1EE400A324A926982ED000A27E058
:104E70002F4A92692F4E366856602D4AD2782D2AD5
:104E800009D12B4A926992ED010AB1EE400A284AF3
:104E9000926982ED010A13E0254A9269254E36682F
:104EA000D660234AD2782D2A09D1214A926992EDFF
:104EB000030AB1EE400A1E4A926982ED030A00BF5E
:104EC00000BF00221A4E727532700BE00022184E9D
:104ED0007275327006E0164A527D154EB67D324428
:104EE000134E727500BF73E6001001402C000020C5
:104EF0001001002095000020240000202800002040
:104F0000004400408E000020880A0020F80800209D
:104F10001C0000202000002000480040EC00002081
:104F2000960000201400002018000020004C0040D3
:104F3000B8000020300000202DE9F84304460D465B
:104F400016461F464FF0000994F83900202851D129
:104F500005B116B90120BDE8F8830020E0632120E7
:104F600084F83900FEF778F88146A684E6842BE0C1
:104F7000E08C401EE084A068B0F5805F16D14B46FF
:104F8000002280212046009704F006FE08B103208D
:104F9000E1E7A846B8F80000C0F3080021684860BF
:104FA000206908B9AD1C0FE06D1C0DE04B460022D6
:104FB00080212046009704F0EFFD08B10320CAE7E6
:104FC00015F8010B21684860E08C0028D0D14B46D1
:104FD000002240212046009704F0DEFD08B10320A6
:104FE000B9E7202084F8390000BF002084F8380099
:104FF00000BFB0E70220AEE7704700BFFEE7000049
:105000001FB50DA103C9CDE902010DA103C9CDE969
:1050100000014FF47A73052202A90B48FFF78CFFB9
:105020004FF47A73052269460748FFF785FF64202D
:1050300005F066FE1FBD0000FFAA6988B5000000EC
:10504000FFAA760000000000280B002070B504467F
:10505000002609480588408845430021084601F09C
:1050600065FA02F08DF900BF02E004490C80761C5D
:10507000AE42FAD370BD0000800500208000006CB5
:1050800010B5044655488471002C51D1F020534985
:1050900008804FF4A07048800846808849F241316A
:1050A000884205D04D48808845F21031884214D19D
:1050B0002C204A4908812A2048812B2088810846D3
:1050C000808845F21031884206D14FF4A0704349E0
:1050D00008804FF4F07048807BE04048808845F2BB
:1050E0001051884210D14FF430503C4908814FF4A0
:1050F000285048814FF42C5088814FF4F07008807C
:105100004FF44870488064E03448808841F6631169
:1051100088425ED12C20314908812B2048812A20E9
:1051200088814FF4F07008804FF44870488050E058
:105130004FF4A07029490880F020488008468088F4
:1051400049F24131884205D02448808845F2103127
:10515000884207D12C20214908812A2048812B2010
:10516000888129E01D48808845F21051884210D17D
:105170004FF43050194908814FF4285048814FF4BA
:105180002C5088814FF4487008804FF4F0704880AC
:1051900012E01248808841F6631188420CD12C201D
:1051A0000E4908812A2048812B2088814FF44870BD
:1051B00008804FF4F07048800848808845F210312C
:1051C000884206D14FF4F070044908804FF4A07073
:1051D0004880002001F070F810BD0000800500201C
:1051E00030B504460D463F48808849F24131884237
:1051F00005D03C48808845F21031884214D13949A5
:10520000488902F0B1F8201202F0A2F8E0B202F0F0
:105210009FF83449888902F0A7F8281202F098F81C
:10522000E8B202F095F854E02E48808845F210511B
:10523000884220D12B49488902F096F8201202F0CA
:1052400087F828494989491C88B202F08DF8E0B2F4
:1052500002F07EF82349888902F086F8281202F0CD
:1052600077F820498989491C88B202F07DF8E8B2B4
:1052700002F06EF82DE01B48808841F663118842E9
:1052800027D11848807920B916480088401E001B95
:1052900084B21449488902F067F8201202F058F8E5
:1052A000E0B202F055F8201202F052F8E0B202F03B
:1052B0004FF80C49888902F057F8281202F048F894
:1052C000E8B202F045F8281202F042F8E8B202F023
:1052D0003FF804480089044908804FF0D841A1F8FC
:1052E000802030BD800500207E00006C10B532208B
:1052F00005F006FD322005F003FDFE48808845F2EA
:10530000103188422AD04FF45A4002F02DF800F0B4
:10531000C7FFF84988804FF45B4002F025F800F0A1
:10532000BFFFF4498880084680884FF6FF7101EA84
:105330000020F04988804FF45C4002F015F800F03E
:10534000AFFFEC4989880843EA498880084680888D
:10535000B0F5004F02D145F210508880E5488088B2
:1053600045F2105188427DD155214FF4704002F032
:1053700011F8AA214FF2010002F00CF852214FF26D
:10538000020002F007F808214FF2030002F002F8D1
:1053900001214FF2040001F0FDFF0D214FF43040D8
:1053A00001F0F8FF0D214BF2010001F0F3FF0D2198
:1053B0004BF2020001F0EEFF34214FF4364001F0D1
:1053C000E9FF34214BF2016001F0E4FF34214BF29C
:1053D000026001F0DFFF0D214FF4314001F0DAFFF0
:1053E0000D214BF2011001F0D5FF0D214BF20210FF
:1053F00001F0D0FF34214FF4374001F0CBFF3421CE
:105400004BF2017001F0C6FF34214BF2027001F043
:10541000C1FF00214FF4324001F0BCFF00214BF2EC
:10542000012001F0B7FF00214BF2022001F0B2FF92
:1054300024214FF4384001F0ADFF24214BF6010048
:1054400001F0A8FF24214BF6020001F0A3FF012187
:105450004FF43F4001F09EFF0F214FF4334001F025
:1054600099FF00E0FDE30F214BF2013001F092FFC4
:105470000F214BF2023001F08DFF34214FF43940FF
:1054800001F088FF34214BF6011001F083FF342135
:105490004BF6021001F07EFF08214FF4354001F079
:1054A00079FF08214BF2015001F074FF08214BF203
:1054B000025001F06FFF03214FF4424001F06AFFF8
:1054C00024214FF43A4001F065FF24214BF60120DE
:1054D00001F060FF24214BF6022001F05BFF002168
:1054E0004FF43C4001F056FF78214BF6014001F0AB
:1054F00051FF00214BF6024001F04CFF00214FF418
:105500003D4001F047FF78214BF6015001F042FF8A
:1055100000214BF6025001F03DFF00214FF43E40C8
:1055200001F038FF64214BF6016001F033FF0021E8
:105530004FF4514001F02EFF33214DF2011001F0E4
:1055400029FF00214DF2021001F024FF34214DF219
:10555000031001F01FFF00214DF2041001F01AFFAB
:105560003A214DF2051001F015FF00214DF2061011
:1055700001F010FF4A214DF2071001F00BFF00214E
:105580004DF2081001F006FF5C214DF2091001F008
:1055900001FF00214DF20A1001F0FCFE81214DF2C5
:1055A0000B1001F0F7FE00214DF20C1001F0F2FE9D
:1055B000A6214DF20D1001F0EDFE00214DF20E106E
:1055C00001F0E8FEE5214DF20F1001F0E3FE0121AC
:1055D0004DF2101001F0DEFE13214DF2111001F01A
:1055E000D9FE01214DF2121001F0D4FE54214DF2EA
:1055F000131001F0CFFE01214DF2141001F0CAFE8C
:1056000082214DF2151001F0C5FE01214DF2161058
:1056100001F0C0FECA214DF2171001F0BBFE0221BD
:105620004DF2181001F0B6FE00214DF2191001F0F4
:10563000B1FE02214DF21A1001F0ACFE01214DF233
:105640001B1001F0A7FE02214DF21C1001F0A2FE7A
:1056500034214DF21D1001F09DFE02214DF21E106D
:1056600001F098FE67214DF21F1001F093FE022118
:105670004DF2201001F08EFE84214DF2211001F038
:1056800089FE02214DF2221001F084FEA4214DF288
:10569000231001F07FFE02214DF2241001F07AFE6A
:1056A000B7214DF2251001F075FE02214DF22610B2
:1056B00001F070FECF214DF2271001F06BFE0221A8
:1056C0004DF2281001F066FEDE214DF2291001F0A6
:1056D00061FE02214DF22A1001F05CFEF2214DF232
:1056E0002B1001F057FE02214DF22C1001F052FE5A
:1056F000FE2101E0800500204DF22D1001F04AFE50
:1057000003214DF22E1001F045FE10214DF22F1015
:1057100001F040FE03214DF2301001F03BFE332139
:105720004DF2311001F036FE03214DF2321001F03E
:1057300031FE6D214DF2331001F02CFE00214FF4AB
:10574000524001F027FE33214DF2012001F022FEEC
:1057500000214DF2022001F01DFE34214DF2032004
:1057600001F018FE00214DF2042001F013FE3A2151
:105770004DF2052001F00EFE00214DF2062001F051
:1057800009FE4A214DF2072001F004FE00214DF2EE
:10579000082001F0FFFD5C214DF2092001F0FAFD27
:1057A00000214DF20A2001F0F5FD81214DF20B2080
:1057B00001F0F0FD00214DF20C2001F0EBFDA621DF
:1057C0004DF20D2001F0E6FD00214DF20E2001F01A
:1057D000E1FDE5214DF20F2001F0DCFD01214DF24C
:1057E000102001F0D7FD13214DF2112001F0D2FD60
:1057F00001214DF2122001F0CDFD54214DF2132074
:1058000001F0C8FD01214DF2142001F0C3FD8221F9
:105810004DF2152001F0BEFD01214DF2162001F0E0
:10582000B9FDCA214DF2172001F0B4FD02214DF25D
:10583000182001F0AFFD00214DF2192001F0AAFD62
:1058400002214DF21A2001F0A5FD01214DF21B208D
:1058500001F0A0FD02214DF21C2001F09BFD34213E
:105860004DF21D2001F096FD02214DF21E2001F0A7
:1058700091FD67214DF21F2001F08CFD02214DF2B8
:10588000202001F087FD84214DF2212001F082FDCE
:1058900002214DF2222001F07DFDA4214DF22320B2
:1058A00001F078FD02214DF2242001F073FDB721B3
:1058B0004DF2252001F06EFD02214DF2262001F06F
:1058C00069FDCF214DF2272001F064FD02214DF248
:1058D000282001F05FFDDE214DF2292001F05AFD64
:1058E00002214DF22A2001F055FDF2214DF22B202C
:1058F00001F050FD02214DF22C2001F04BFDFE2164
:105900004DF22D2001F046FD03214DF22E2001F035
:1059100041FD10214DF22F2001F03CFD03214DF2FD
:10592000302001F037FD33214DF2312001F032FDFE
:1059300003214DF2322001F02DFD6D214DF2332077
:1059400001F028FD00214FF4534001F023FD3321E5
:105950004DF2013001F01EFD00214DF2023001F048
:1059600019FD34214DF2033001F014FD00214DF2F8
:10597000043001F00FFD3A214DF2053001F00AFD2F
:1059800000214DF2063001F005FD4A214DF20730AD
:1059900001F000FD00214DF2083001F0FBFC5C211C
:1059A0004DF2093001F0F6FC00214DF20A3001F011
:1059B000F1FC81214DF20B3001F0ECFC00214DF2A5
:1059C0000C3001F0E7FCA6214DF20D3001F0E2FCB5
:1059D00000214DF20E3001F0DDFCE5214DF20F30DB
:1059E00001F0D8FC01214DF2103001F0D3FC13215D
:1059F0004DF2113001F0CEFC01214DF2123001F0D8
:105A0000C9FC54214DF2133001F0C4FC01214DF2C8
:105A1000143001F0BFFC82214DF2153001F0BAFCC8
:105A200001214DF2163001F0B5FCCA214DF21730BC
:105A300001F0B0FC02214DF2183001F0ABFC002166
:105A40004DF2193001F0A6FC02214DF21A3001F09E
:105A5000A1FC01214DF21B3001F09CFC02214DF212
:105A60001C3001F097FC34214DF21D3001F092FC06
:105A700002214DF21E3001F08DFC67214DF21F30E6
:105A800001F088FC02214DF2203001F083FC8421DA
:105A90004DF2213001F07EFC02214DF2223001F066
:105AA00079FCA4214DF2233001F074FC02214DF267
:105AB000243001F06FFCB7214DF2253001F06AFC73
:105AC00002214DF2263001F065FCCF214DF2273046
:105AD00001F060FC02214DF2283001F05BFCDE2178
